:100000000C94F0030C9437040C9437040C94E61F02
:100010000C9437040C9437040C9437040C94370474
:100020000C9437040C9437040C940D150C94D114D3
:100030000C94461E0C9437040C9437040C9437042B
:100040000C9437040C9437040C9437040C94370444
:100050000C9437040C94201E0C9437040C94370431
:100060000C9437040C9437040C9437040C94370424
:100070000C9437040C9437040C9437040C94370414
:100080000C9437040C9437040C9437040C94370404
:100090000C9437040C9437040C9437040C943704F4
:1000A0000C9437040C9437040C94370400010101BC
:1000B0000101010101010202020202020202020325
:1000C00003030303030303040404040404040505F5
:1000D00005050506060606060707070707080808B8
:1000E00008090909090A0A0A0B0B0B0C0C0C0D0D67
:1000F0000D0E0E0E0F0F0F101011111112121313FF
:100100001414151516161717181819191A1A1B1B77
:100110001C1D1D1E1E1F20202122222324242526D3
:1001200026272829292A2B2C2D2D2E2F303132320B
:10013000333435363738393A3B3C3D3E3F40414217
:10014000434445464748494A4C4D4E4F50515354FD
:10015000555658595A5B5D5E5F61626465666869B1
:100160006B6C6D6F7072737577787A7B7D7E808231
:10017000838587888A8C8E8F91939596989A9C9E7A
:10018000A0A2A3A5A7A9ABADAFB1B3B5B7BABCBE8A
:10019000C0C2C4C6C9CBCDCFD1D4D6D8DBDDDFE257
:1001A000E4E7E9EBEEF0F3F5F8FAFDFFFFAA7F557F
:1001B000402223252628292A2C2D2F30323335366C
:1001C000383A3B3D3E4042434547494A4C4E5051E8
:1001D000535557595A5C5E6062646668696B6D6F0F
:1001E00071737577797B7D7F81838587898A8C8E12
:1001F00090929496989A9C9E9FA1A3A5A7A8AAAC1A
:10020000AEAFB1B3B4B6B8B9BBBCBEBFC1C2C3C553
:10021000C6C7C9CACBCCCDCED0D1D2D2D3D4D5D6F5
:10022000D7D7D8D9D9DADADBDBDBDCDCDCDCDCDD28
:10023000DDDDDDDCDCDCDCDCDBDBDBDADAD9D9D80C
:10024000D7D7D6D5D4D3D2D2D1D0CECDCCCBCAC9A4
:10025000C7C6C5C3C2C1BFBEBCBBB9B8B6B4B3B1D3
:10026000AFAEACAAA8A7A5A3A19F9E9C9A9896946E
:1002700092908E8C8A89878583817F7D7B79777543
:1002800073716F6D6B6968666462605E5C5A595722
:10029000555351504E4C4A4947454342403E3D3BE1
:1002A0003A3836353332302F2D2C2A29282625236B
:1002B000220000000000000000000000000000001C
:1002C000000000000000000000000000000000002E
:1002D00000000000007E0F00D4FFFFFFC7000000F9
:1002E0007800000000000000002A2B280000000019
:1002F00000000000000000000000000029000000D5
:10030000002C1E3420212224342627252E362D377A
:1003100038271E1F202122232425263333362E374B
:10032000381F0405060708090A0B0C0D0E0F1011E3
:1003300012131415161718191A1B1C1D2F313023F0
:100340002D350405060708090A0B0C0D0E0F1011B8
:1003500012131415161718191A1B1C1D2F313035BE
:100360004C2C002C008B00E200E300E0004E00016A
:10037000510500190006001B001D00E1004B0001A3
:10038000510A00090007001600040039004D00035F
:10039000511700150008001A0014002B004A000332
:1003A000512200210020001F001E003500490002DC
:1003B000513E003D003C003B003A00290046000150
:1003C000513F004000410042004300440045004CC2
:1003D00000230024002500260027002D002E002ADF
:1003E000001C0018000C00120013002F0030003118
:1003F000000B000D000E000F003300340028004BEE
:100400000011001000360037003800E50052004EA1
:10041000002C008A008800E600E400500051004FE4
:1004200000010001000100010001000100005C0169
:1004300000010001000100010001000100DF5C017A
:1004400000010001000100010001000100010001A4
:100450000001000100010001000100010001000194
:100460000001000100010001000100010001000184
:100470000001000100010001000100C45CC35C0137
:100480000001000100010001000100010001000164
:100490000001000100010001000100010001000154
:1004A0000001000100010001000100010001000144
:1004B0000001000100010001000100010001000134
:1004C0000001000100010001000100010001000124
:1004D0000001000100010001000100010001000114
:1004E0000001000100010001000100010001000104
:1004F00000010001000100010001000100010001F4
:1005000000010001000100010001000100010001E3
:1005100000010001000100010001000100010001D3
:1005200000010001000100010001000100010001C3
:1005300000010001000100010001000100010001B3
:1005400000010001000100010001000100010001A3
:100550000001000100010001000100010001000193
:100560000001000100010001000100010001000183
:100570000001000100010001000100010001000173
:100580000001000100010001000100010001000163
:100590000001000100010001000100010001000153
:1005A0000001000100010001000100010001000143
:1005B0000001000100010001000100010001000133
:1005C0000001000100010001000100010001000123
:1005D0000001000100010001000100010001000113
:1005E0000001000100010001000100010001000103
:1005F00000010001000100010001000100010001F3
:1006000000010001000100010001000100010001E2
:1006100000010001000100010001000100010001D2
:1006200000010001000100010001000100010001C2
:1006300000010001000100010001000100010001B2
:1006400000010001000100010001000100010001A2
:100650000001000100010001000100010001000192
:10066000007F3F1F643214643214783C1E1E140A4B
:100670000505010902A10185020901A10005091969
:100680000129081500250195087501810205010958
:100690003009311581257F950275088106093815C5
:1006A00081257F950175088106050C0A38021581A0
:1006B000257F950175088106C0C005010980A1014B
:1006C000850319012AB700150126B7009501751099
:1006D0008100C0050C0901A101850419012AA002AD
:1006E000150126A002950175108100C005010906BB
:1006F000A1018505050719E029E7150025019508E1
:10070000750181020507190029EF1500250195F0F3
:1007100075018102050819012905950575019102E8
:10072000950175039101C005010906A1010507198D
:10073000E029E715002501950875018102950175ED
:100740000881010507190029FF150026FF009506FD
:1007500075088100050819012905950575019102A3
:10076000950175039101C009023B00020100A0FA46
:100770000904000001030101000921110100012207
:1007800040000705810308000A0904010001030075
:10079000000009211101000122B600070582032093
:1007A000000A12011001000000080912967E0100E3
:1007B00001020001180374006500390036002000B2
:1007C00063007500730074006F006D0000000C037F
:1007D0006500330077003200710000000403090453
:1007E00011241FBECFEFDAE0DEBFCDBF04B603FE9B
:1007F00027C08091FE029091FF02A0910003B0916A
:1008000001038730904BA740B04BD1F41092FE0209
:100810001092FF02109200031092010314BE84B7DD
:10082000877F84BF0FB6F894A89580916000886197
:1008300080936000109260000FBEE0E0F8E309953D
:1008400011E0A0E0B1E0E4E2F3E402C005900D9213
:10085000A039B107D9F722E0A0E9B1E001C01D92AB
:10086000AE3FB207E1F70E946C1A0C9490210C94F1
:100870000000E8EDF0E080818E7F80831092E2003E
:100880001092DA001092E100A0EEB0E08C9181604D
:100890008C9380818F77808319BCA7EDB0E08C9119
:1008A0008E7F8C9380818F7E80831092B802089512
:1008B0002091E4003091E50085E69091EC0090FFF6
:1008C00006C09091E80090FF06C080E008959091E6
:1008D000E80092FDFACF9091DD02992391F09530D6
:1008E00091F09091EB0095FD10C04091E400509183
:1008F000E5002417350709F381509A01F1F684E0E9
:10090000089582E0089583E0089581E00895EF92CC
:10091000FF920F931F93CF937C018B010E94580489
:10092000C82F811117C08091E80085FD0BC0809110
:10093000E8008E778093E8000E945804882399F39A
:10094000C82F08C0F70181917F018093F100015009
:10095000110949F78C2FCF911F910F91FF90EF90C4
:1009600008958091DF0287FF13C08091E80082FF25
:1009700006C08091E8008B778093E80004C08091E6
:10098000DD028111F2CF08958091DD028823D9F331
:100990008091E80080FFF8CF8091E8008E77ECCF5F
:1009A000982F9093E900242F762F50E0891731F08B
:1009B0007091EC002091ED005091F00021FD07C0F6
:1009C0009F5F973071F78093E90081E0089530913F
:1009D000EB003E7F3093EB003091ED003D7F309394
:1009E000ED003091EB0031603093EB007093EC0040
:1009F0002093ED005093F0002091EE0027FDE0CF12
:100A000080E00895CF92DF92EF92FF920F931F93B1
:100A1000CF93DF93C8EDD0E088818F7E8883E7EDA8
:100A2000F0E080818160808384E082BF81E08093F8
:100A3000B80288818E7F888302EE10E0F801108270
:100A40001092DA0081EEC82ED12CF6011082888136
:100A50008F77888388818068888388818F7D888369
:100A600019BC1092DD021092DE021092DC0210928C
:100A7000DB0290EEE92EF12CF70180818B7F8083E1
:100A800088818160888342E060E080E00E94D00439
:100A9000F60180818E7F8083F80180818160808370
:100AA000808188608083F70180818E7F8083888148
:100AB00080618883DF91CF911F910F91FF90EF901C
:100AC000DF90CF900895FC018091E5029091E602BD
:100AD00086179707A0F06115710529F49091E80039
:100AE0009E779093E80090E06115710551F49111A3
:100AF00008C08091E80082FF35C080E00895BC0105
:100B0000F2CF8091DD028823C9F18530C9F180914F
:100B1000E80083FD31C08091E80082FDEACF80913A
:100B2000E80080FFE1CF2091F3008091F200322FA6
:100B3000282F6115710519F02830310558F091E022
:100B40002830310509F090E02091E8002E772093BD
:100B5000E800CACF81918093F100615071092F5F45
:100B60003F4FE7CF8091DD02882341F0853041F08F
:100B70008091E80083FFBDCF81E0089582E0089571
:100B800083E00895089580E008958091BA02089561
:100B90009C014FB7F89480917D0290917E02A091C4
:100BA0007F02B09180024FBF821B930B08952FB735
:100BB000F89480917D0290917E02A0917F02B09185
:100BC00080022FBF089580915A02811110925A021B
:100BD00008958091590290915802892B9091570263
:100BE000892B8093920190915A029923A1F0892B2D
:100BF0008093920180911801882341F180917502C0
:100C000087FF24C08EE1E4E9F1E090E0815000F537
:100C100091110E94E305E0917802F09179023097FA
:100C2000E1F080911801882359F08091750287FFC7
:100C300007C0809192018093930185E08093920197
:100C40000280F381E02D82E991E0099486E0DBCF18
:100C500021912223D9F29F5FD9CF08959091180155
:100C60009923D1F09091750297FF16C0E82FE69571
:100C7000E695E695EE31D8F4F0E0EE56FE4F282FDB
:100C8000277081E090E001C0880F2A95EAF78095EF
:100C90009281892382830895E2E9F1E092818913A8
:100CA00001C01282319691E0E839F907B9F7089549
:100CB000909118019923C1F09091750297FF14C08B
:100CC000E82FE695E695E695EE31F8F4F0E0EE567D
:100CD000FE4F877021E030E001C0220F8A95EAF7CD
:100CE0008281822B82830895A4E9B1E0EFEF90E046
:100CF0002D91821751F0EF3F19F4211101C0E92F16
:100D00009F5F9630A9F7EF3F09F408950E2E000C6F
:100D1000FF0BEE56FE4FE6CF990F990F990F890FF3
:100D2000982F977086958695869525E0829FA001DD
:100D3000112470E060E080E0FA01E60FF71FE65E44
:100D4000FD4F208130E0092E02C0369527950A9488
:100D5000E2F721703327062E01C0220F0A94EAF72A
:100D6000822B6F5F7F4F6530710531F70895990FC2
:100D7000990F990F890F982F977071E001C0770F25
:100D80009A95EAF786958695869525E0829FC0011B
:100D9000112450E040E0A62FB0E0FC01E40FF51F65
:100DA000E65EFD4F60819D01042E02C036952795B9
:100DB0000A94E2F7217021952627272326272083EE
:100DC0004F5F5F4F4530510541F7089580911902FB
:100DD0009091E801981301C008958F5F8770FACF52
:100DE0002091DF013091E0012817390771F09093CD
:100DF000E0018093DF01E0917802F0917902309771
:100E000021F00084F185E02D099408952091DD0101
:100E10003091DE012817390771F09093DE0180933D
:100E2000DD01E0917802F0917902309721F006809F
:100E3000F781E02D09940895E0917802F09179020C
:100E4000309721F00190F081E02D099480E0089521
:100E5000EBE9F2E0118282818460828308958091BF
:100E60009602982F9E7F29F481708260809396026B
:100E700008958434E8F381708264F8CFAF92BF9212
:100E8000CF92DF92EF92FF920F931F93CF93DF9356
:100E9000C82ED62EE42FF0E0E455FF4F611115C0A7
:100EA000E4919E2F8E2FD90111968C931197EC937C
:100EB00012969C93DF91CF911F910F91FF90EF902D
:100EC000DF90CF90BF90AF900895E62EF12CE49183
:100ED000FE2F0E2F10E046E0849FC0011124CFEFBB
:100EE000D0E0BE010E9449218C2D90E0880F991F0F
:100EF000A5E5A69FA001A79F500D1124841B950B6B
:100F0000B82EBB0CB80ECE018E199F09809FA00190
:100F1000819F500D909F500D1124952FDB9CD00187
:100F20001124AB2FBB276E01CA1ADB0AC09ED00169
:100F3000C19EB00DD09EB00D11248B2F6E01CB1829
:100F4000D1085601AE9C6001AF9CD00CBE9CD00C69
:100F50001124CD2CDD24CC19DD09C09F7001C19F67
:100F6000F00CD09FF00C112462307105B1F058F4F0
:100F70006115710579F06130710509F494CF8E2FF8
:100F8000E52F9B2F90CF6430710571F048F06630EB
:100F90007105A9F78E2FEF2D86CF852F9F2D83CF3B
:100FA000EB2F852F9F2F7FCF8F2DE52FFBCF0E941B
:100FB000D7052091A602211104C02091A702222367
:100FC00021F09093A3028093A2022091A802211104
:100FD00004C02091A902222321F09093A0028093C3
:100FE0009F02E0917802F0917902309749F082E017
:100FF0008093A4020480F581E02D84EA92E00994B4
:10100000089590E080E00E94060790E080E00E9452
:10101000F00610925802109257020E94E90586E0ED
:10102000E4EAF2E0DF011D928A95E9F71092A1024D
:1010300010929E021092E1010C94D7076093710206
:101040007093720280937302909374020C9401085F
:101050000F931F9341E050E060E070E004C0440F44
:10106000551F661F771F8A95D2F7CB01BA0160958D
:101070007095809590950091710210917202209167
:1010800073023091740260237123822393231F9192
:101090000F910C941E08909156028095892380939D
:1010A0005602282F277071F4282F082E000C330BBE
:1010B0009217130639F08595859585950E94280825
:1010C00010925602089560935B0270935C028093C5
:1010D0005D0290935E020C9401088D3ED9F49091CC
:1010E000A70297FF1DC01092A7028091A60281114E
:1010F00006C08091A702811102C01092A1028091C6
:10110000A802811106C08091A902811102C010922B
:101110009E0208958E3ED9F49091A70219161CF3F1
:101120009FE0980F983008F03FC0815F990B21E055
:1011300030E0A90102C0440F551F8A95E2F7CA01A9
:1011400080959091A50289238093A502CECF90919E
:10115000A6028F3E29F497FFE3CF1092A602C5CFD7
:10116000803F19F41916CCF3DBCF9091A802893F88
:1011700029F41916ACF61092A802B7CF8A3F19F4D9
:1011800097FFCECFF8CF8B3F39F49091A90297FF0C
:10119000C7CF1092A902A9CF8C3F09F0C1CF90917F
:1011A000A9021916B4F3BCCF8D3F31F48091E1014F
:1011B0008E7F8093E10199CF8E3F21F48091E101F0
:1011C0008D7FF7CF8F3F09F090CF8091E1018B7F2A
:1011D000F0CF882309F459C0823871F40E941C07AB
:1011E00081FF53C089E30E9458060E94E90589E304
:1011F0000E942E060C94E905833859F40E941C07BE
:1012000080FF43C083E50E9458060E94E90583E5FC
:10121000EFCF843859F40E941C0782FF36C087E460
:101220000E9458060E94E90587E4E2CF9CEF980FE0
:10123000913AF0F290E2980F983088F4877021E0AC
:1012400030E0A90102C0440F551F8A95E2F7CA0198
:10125000809590915902892380935902CBCF9BE5C9
:10126000980F933020F490E080E00C94060798E506
:10127000980F973120F490E080E00C94F0068D3EBA
:1012800020F00E946D080C94D70708958091E10129
:1012900080FD16C081FD16C082FD16C080919E02A1
:1012A0008823A1F0883280F428E0829FC0011124B5
:1012B00068E270E00E945D21862F672B39F0089567
:1012C00082E0089584E0089588E0089581E008951B
:1012D0008091E10180FD14C081FD14C082FD16C023
:1012E0008091A102882381F0843180F422E3829FDF
:1012F000C001112464E170E00E945D21862F0895F1
:101300008CE0089589E1089585E0089582E30895C9
:101310008D3E31F40E94680981958093A70208955B
:101320008E3E19F40E946809F8CF8F3E31F40E9476
:10133000680981958093A6020895803F19F40E9460
:101340006809F8CF893F29F40E9446098093A802D2
:1013500008958A3F21F40E9446098195F7CF8B3F7B
:1013600031F40E94460981958093A90208958C3F2B
:1013700019F40E944609F8CF9FE0980F983070F456
:10138000815F990B21E030E001C0220F8A95EAF7D6
:101390008091A502822B8093A50208958D3F31F4A0
:1013A0008091E10181608093E10108958E3F21F4F5
:1013B0008091E1018260F7CF8F3FB9F78091E10121
:1013C0008460F1CFF894E82FE295EF70F0E031A15E
:1013D000282F2F7081E090E001C0880F2A95EAF74E
:1013E000982F9095932391A392A1892B82A378940F
:1013F00008959091750292FF06C0282F2871283019
:10140000F9F4877F846093FF06C0282F2871283164
:10141000F1F4877E84612091760220FF06C0382F88
:1014200038713830D9F4877F816021FF06C0282FBA
:1014300028712831D1F4877E816194FD877E0895DB
:10144000282F24712430F9F68B7F8860DCCF282F79
:101450002471243101F78B7E8861DDCF382F317103
:10146000313019F78E7F8860E0CF282F217121312C
:1014700021F78E7E8861E1CFCF93DF93E72FF0E0F5
:101480002CE0829FE00DF11D1124B3E0EE0FFF1F51
:10149000BA95E1F7E60FF11DEE0FFF1FEF59FC4F74
:1014A000C591D491CE01C238D105B1F1E0F5C13377
:1014B000D10509F498C048F5C932D10509F48CC0AA
:1014C000CA32D10509F496C0C11541E5D40708F028
:1014D000BEC0C11550E5D50708F01AC1C83ED105F8
:1014E00008F09CC0C03ED10560F5C83AD10508F0AF
:1014F00088C0C53AD10508F003C1C130D10509F152
:1015000008F443C02497E8F440C0C533D10509F47A
:101510005CC0C933D105C1F620917502237089F0F2
:1015200080EE90E00EC0C33ED10591F168F4C03E5C
:10153000D105F9F0C23ED10539F62091750222FDA0
:1015400020C0DF91CF910895C63ED10561F1C73E1D
:10155000D10581F1C43ED10509F0B6CF20917602C4
:1015600021FFEFCF8091750284FD0FC087EE90E0E0
:10157000E8CF2091750220FD20C13091760230FF26
:10158000E0CF83EE90E024FFDCCF90E080E0D9CF85
:101590002091750222FD14C13091760230FDC0CF3A
:1015A00024FDF3CFCECF2091750223FFCACF24FDB7
:1015B000ECCFDCCF2091750223FD05C1309176027E
:1015C00031FFEECF84EE90E0BCCF2091750225FF75
:1015D000B8CF89E290E0B5CF2091750225FFB1CF59
:1015E00085E390E0AECF2091750226FFAACF8AE274
:1015F00090E0A7CF2091750226FFA3CF81E390E072
:10160000A0CFCF3BD10508F6C85AD0E0CC0FDD1FE4
:10161000C25BDE4F88819981946493CFC11520E22B
:10162000D20760F4C11541E0D40708F08ACFCE019B
:101630009065CD3ED10508F084CFA7CFC11550E409
:10164000D50708F4A2CFCE019F70906A7ACFC1155A
:1016500085E5D80720F5C11594E5D90708F090C0B5
:10166000C11523E5D20708F076C0C11542E5D407BD
:1016700008F46CC09E012370332741E050E002C0A3
:10168000440F551F2A95E2F78C2F8695869520E208
:10169000829FC0011124842B952B9C6852CFC115C9
:1016A00059E5D507A0F4C11588E5D80708F06DC045
:1016B000C11596E5D90708F068CF8C2F0E94F9096B
:1016C00090E0982F882788279F7190623ACFC115A4
:1016D0002AE5D20708F45EC0CE01905681159042EB
:1016E00008F053CF8D2F8F710E94F909482F50E0D9
:1016F000542F442744275F71CE019927906223C05D
:10170000C55AD0E0C55BDE4F888190E0906419CF68
:101710009E01F4E036952795FA95E1F723703C2F6A
:10172000337081E090E002C0880F991F3A95E2F78C
:101730009C68AC01522B8C2F86958695837020E295
:10174000829FC0011124842B952BFBCE9C2F8827D0
:10175000816F906AF6CE9E012370332741E050E0FE
:1017600002C0440F551F2A95E2F78C2F8695869567
:1017700020E2829FC0011124842B952B9A68E1CE30
:101780009C2F8827846F906ADCCE9C2F8827806FDF
:10179000906AD7CE8C2F8F700E94F9099E0194E039
:1017A000369527959A95E1F72F7030E0322F222752
:1017B0003069A901482BCA01C4CE89E390E0C1CEAB
:1017C00082EE90E0BECE86EE90E0BBCEBF92CF928E
:1017D000DF92EF92FF920F931F93CF93DF938C01D1
:1017E000C0907102D0907202E0907302F090740287
:1017F00080915B0290915C02A0915D02B0915E02CB
:10180000C82AD92AEA2AFB2ACFE1D0E0BC2ED70188
:10181000C6010C2E04C0B695A795979587950A9496
:10182000D2F780FD0EC0219788F7B12C8B2DDF9168
:10183000CF911F910F91FF90EF90DF90CF90BF90CD
:101840000895B8018C2F0E943C0A019761F3EECFF6
:10185000CF93DF93EC010E94E60BBE01DF91CF91A5
:101860000C943C0A0E94280C292F2F70E92FE29536
:10187000EF70E250EE30E0F4F0E0EF5BF34F0C94E9
:1018800071214F0C4F0C580C580C5A0C580C580C1A
:10189000580C4F0C4F0C5F0C580C580C5F0C803FD1
:1018A00019F020F4883E20F481E00895843FE1F3AC
:1018B00080E00895883EC0F3813FD1F7F5CF822FB5
:1018C0008695869586950895CF9384E090E00E9452
:1018D000F320C82F81E290E00E94F320982F8C2FF4
:1018E000CF910895CF93DF9300D01F92CDB7DEB78D
:1018F0009091DD02943019F589837B836A8382E0BD
:101900008093E9008FEF9091E800815095FD06C02B
:1019100095ED9A95F1F700008111F5CF8091E800DF
:1019200085FF0DC050E040E063E070E0CE0101961D
:101930000E9487048091E8008E778093E8000F90E2
:101940000F900F90DF91CF910895BC0184E00C942B
:10195000720CBC0183E00C94720C22E02093E9002D
:101960002FEF3091E800215035FD06C035ED3A9556
:10197000F1F700002111F5CF2091E80025FF0BC001
:1019800050E040E066E070E00E9487048091E8004B
:101990008E778093E8000895CF93DF93209118010C
:1019A0002223B9F12091750227FF33C060E222E0C3
:1019B0002093E9002FEF3091E800215035FD06C05B
:1019C00035ED3A95F1F700002111F5CF2091E800AF
:1019D00025FF1CC0EC018091180170E050E040E050
:1019E000811104C050E040E068E070E0CE010E9448
:1019F00087048091E8008E778093E80080E2FE0102
:101A0000ABEBB2E001900D928A95E1F7DF91CF91B7
:101A1000089568E021E0CCCFCF93882309F4B0C0CB
:101A2000C82F8238C1F40E941C0781FDA9C089E338
:101A30000E9458060E94E9052FEF81EE94E02150A4
:101A400080409040E1F700C0000089E30E942E062C
:101A5000CF910C94E9058338A1F40E941C0780FD06
:101A60008FC083E50E9458060E94E9052FEF81EEA2
:101A700094E0215080409040E1F700C0000083E5F1
:101A8000E5CF8438A1F40E941C0782FD79C087E469
:101A90000E9458060E94E9052FEF81EE94E0215044
:101AA00080409040E1F700C0000087E4CFCF8CEF8A
:101AB0008C0F813A90F580911801882301F1809173
:101AC000750287FF1CC0EC2FE695E695E695F0E0E1
:101AD000EE56FE4F828190E04C2F477021E030E0BF
:101AE00002C0220F331F4A95E2F782239323892BEA
:101AF00081F08C2F0E942E060E94E9050AC0E4E9BD
:101B0000F1E08AE991E02191C21799F38E179F07BE
:101B1000D1F78C2F0E9458069BCF80E28C0F883023
:101B200068F4C77021E030E001C0220FCA95EAF7DF
:101B300080915902822B809359028ACFEBE5EC0FFA
:101B4000E33040F4F0E0E55BFE4F808190E0CF9120
:101B50000C940607E8E5EC0FE73150F4F0E0EE0FE7
:101B6000FF1FE25BFE4F80819181CF910C94F006C4
:101B7000CD3E30F08C2F0E948809CF910C94D7076E
:101B8000CF9108951F93CF93DF93182FD0E0C0E03B
:101B9000893311F4C0E5D0E0812F0E940C0D20970D
:101BA00031F4812FDF91CF911F910C94E9088FE9D7
:101BB0009FE00197F1F700C000002197F0CF8091DE
:101BC000960280FD0AC0E8EBF1E0118210821282D9
:101BD000339631E0EC3DF307C1F7539A8BB1877F21
:101BE0009BB198602FB7F894E8EBF1E031E0EC3D61
:101BF000F30741F42FBF8FE594E00197F1F700C0A0
:101C000000000895319148E09BB9000000C037FF03
:101C10008BB9330F000000C000C000C08BB900C0FA
:101C20004A9591F7E3CFEF92FF920F931F93CF93D3
:101C3000DF937C01FC018481811109C081E08483F0
:101C40001092DC0192E090930C0180930B01C8EBA1
:101C5000D1E0FE01118210821282339681E0EC3DC8
:101C6000F807C1F710E000E08091DC01082E000CBD
:101C7000990B08171907BCF180910C01082E000C74
:101C8000990B801791077CF19E0140919902609118
:101C90009802809197020E943E070F5F1F4F239684
:101CA0000C30110509F70E94DF0D80910B01909116
:101CB000DC01980F9093DC0120910C01280F2093F8
:101CC0000C01121614F49B303CF0819580930B01AB
:101CD000813011F4F7011482DF91CF911F910F91A0
:101CE000FF90EF900895198218821A82D6CFEF9252
:101CF000FF921F93CF93DF93EC0188EBE82E81E0F6
:101D0000F82E10E08C819701409199026091980221
:101D1000810F0E943E071B5E83E0E80EF11C1C3F12
:101D200089F70E94DF0D9A818C8190FF08C08F5F38
:101D30008C83DF91CF911F91FF90EF900895815098
:101D4000F7CF9F92AF92BF92CF92DF92EF92FF9226
:101D50000F931F93CF93DF93EC018A81BB24B3943D
:101D600080FF02C0BB24BA948C81811108C081E03D
:101D7000B8125DC08BE08093B70181E08C8328EBC3
:101D8000E22E21E0F22E10E000E03CE0932EF7017D
:101D900011821082128294E0C92ED12CA12C809144
:101DA000B7018A0D8D300CF445C0692D0E943B218E
:101DB000892F082E000C990B0817190791F48091B0
:101DC00099028C9DA0018D9D500D1124559547952C
:101DD00055954795970160919802809197020E94CE
:101DE0003E07AB0CF1E0CF1AD108C9F60F5F1F4FC9
:101DF00083E0E80EF11C0C30110549F60E94DF0D5E
:101E00008091B70191E0B9121EC0811117C08BE01B
:101E10008093B7011C82DF91CF911F910F91FF90AA
:101E2000EF90DF90CF90BF90AF909F900895109269
:101E3000B701A3CF87FFBDCF845FBBCF8150809315
:101E4000B701BC82E8CF90E00196B8010E945D2105
:101E50008093B7018C83DFCF9091960290FF0CC0E6
:101E6000E8EBF1E0818360834283339691E0EC3DBF
:101E7000F907C1F70C94DF0D0895CF93DF9300D0DD
:101E80001F92CDB7DEB79091960290FF0AC09E01D7
:101E90002F5F3F4F0E943E074B8169818A810E94DC
:101EA0002C0F0F900F900F90DF91CF910895CF934B
:101EB000DF93EC01EC81F0E0EF54FE4F4491E6E952
:101EC000F2E0628181810E943D0F8C818F5F8C8363
:101ED000DF91CF910895CF93DF93EC01E6E9F2E033
:101EE000438162818C810E943D0F8C818F5F8C8346
:101EF000DF91CF910895E6E9F2E080818E7F8083C3
:101F00000E942807EBE9F2E08281816082832FEF53
:101F100080E792E0215080409040E1F700C000004F
:101F20000C94DF0D8091B601811110C08091D80012
:101F300080618093D8008AE18A95F1F700C0809192
:101F4000D90080FD0AC082E08093B60181E09091C3
:101F5000B601913009F080E0089581E0F5CFCF928D
:101F6000DF92EF92FF926B017C010E942F07B70175
:101F7000A60188E090E0FF90EF90DF90CF900C9466
:101F800019213F924F925F926F927F928F929F9210
:101F9000AF92BF92CF92DF92EF92FF920F931F9377
:101FA000CF93DF9300D01F92CDB7DEB7182F562EF8
:101FB000042F422E9091960290FF3BC0E92FE695A8
:101FC000AE2FB0E0A75DBE4F8C9180939B029E7FA9
:101FD000923009F043C09E012F5F3F4F812F0E9436
:101FE0003E074B8169818A810E942C0F8091970264
:101FF000811308C080919802851104C080919902D4
:10200000801729F080919D02826080939D02109339
:1020100097025092980200939902442051F06091E7
:1020200096027091970280919802909199020E9475
:10203000AF0F0F900F900F90DF91CF911F910F91E5
:10204000FF90EF90DF90CF90BF90AF909F908F90D8
:102050007F906F905F904F903F900895823019F479
:1020600000919902C3CF863019F410919702BECF28
:102070008930D9F3883109F0B9CFE8518E2F8170BA
:10208000382EE695F0E0E455FE4FA590B490BB24C1
:1020900088EBE82E81E0F82E9CED892E91E0992EB8
:1020A000D12CC12C2CE0622E712CC601B3010E94F0
:1020B0004921812F311011C0860F9701402F652DC6
:1020C0000E943E07CA0CDB1C83E0E80EF11C8E1454
:1020D0009F0459F70E94DF0D89CF861BEECFE6E9FA
:1020E000F2E083E0808311828FEF82838383148206
:1020F000ABE9B2E012968C911297836012968C93A2
:1021000060817181828193810C94AF0F6BEE7EEFC1
:1021100090E080E00E94252160E082E090E00E9453
:10212000072160E083E090E00E94072110925B02AB
:1021300010925C0210925D0210925E0260E084E0F8
:1021400090E00E94072160E081E290E00E94072178
:1021500060E085E090E00E94072160E086E090E08A
:102160000E9407216FEF87E090E00E94072140E086
:1021700050E0BA0188E090E00E94192160E08DE013
:1021800090E00E94072140E050E0BA0188E190E031
:102190000E94192160E087E190E00E94072140E061
:1021A00050E0BA018CE190E00E94192160E080E2E9
:1021B00090E00E94072140E050E0BA0188E190E001
:1021C0000E94192140E050E0BA018FE090E00E94A7
:1021D000192140E050E0BA0183E190E00C9419210C
:1021E0001092590280911801E4E9F1E0882359F036
:1021F0008091750287FF07C08EE1DF011D928A95ED
:10220000E9F70C94010886E0F8CF1F93CF93DF9392
:10221000CDB7DEB7AA970FB6F894DEBF0FBECDBF1D
:10222000EFEDF2E08091F100819322E0E73EF207CA
:10223000C9F78091E002833009F47CC008F5813051
:1022400009F453C0823009F4BDC08091E80083FFD7
:10225000F7C08091DF029091E0029A3008F0F0C060
:10226000E92FF0E0EA5CFE4E0C947121F311191293
:102270002012191220127712991220129713A41308
:102280008A3009F48EC08B3009F471C08930E9F6C8
:102290008091DF028132C9F68091E3029091E402DD
:1022A000029798F68091E800877F8093E8008091FC
:1022B000E80082FF3AC08091F3009091F2008927F4
:1022C00098278927029729F48091F1008B7F81302C
:1022D00021F48091F1008093BA028091E8008B771D
:1022E0008093E8000E94B104B0CF8091DF02813A70
:1022F00009F0ABCF8091E800877F8093E800809160
:10230000E3029091E402892B61F060E090E080E0CC
:1023100070E00E9463058091E8008B778093E8006D
:1023200094CF60E28BEB92E0F3CF8091DD028111DC
:10233000BECF8BCF8091DF02813A09F086CF8091AA
:10234000E3029091E402892B09F07FCF8091E800AD
:10235000877F8093E8008091E80080FFFCCF809128
:1023600018018093F1008091E8008E77B9CF8091B9
:10237000DF02813209F069CF8091E3029091E4029B
:10238000892B09F062CF8091E800877F8093E80075
:102390000E94B1048091E102809318010E94F01024
:1023A00054CF8091DF02813209F04FCF8091E80055
:1023B000877F8093E8000E94B1048091E2028093BD
:1023C000B90243CF8091DF02813A09F03ECF80917C
:1023D000E800877F8093E8008091E80080FFFCCFD1
:1023E0008091B902BECF803889F0823849F580915A
:1023F000E3028F70873020F58093E9008091EB0035
:1024000085FB882780F91092E90006C08091DB02E5
:102410009091DC02911182609091E800977F9093F7
:10242000E8008093F1001092F1008091E8008E772F
:102430002DC0282F2D7F21F48823D1F0823059F12F
:102440008091E80083FF0AC08091E800877F809335
:10245000E8008091EB0080628093EB00AA960FB6B3
:10246000F894DEBF0FBECDBFDF91CF911F910895CD
:102470008091E102813021F7933009F080E0809370
:10248000DC021092E9008091E800877F8093E800E9
:102490000E94B104D5CF8091E1028111F2CF8091E9
:1024A000E3028F702FEF280F263050F68093E9005B
:1024B0002091EB0020FFE5CF933031F48091EB00C9
:1024C00080628093EB00DDCF9091EB009061909360
:1024D000EB0021E030E001C0220F8A95EAF720935B
:1024E000EA001092EA008091EB008860EACF811147
:1024F000A7CF1091E1021F778091E3008078812BB4
:102500008093E3008091E800877F8093E8000E9439
:10251000B1048091E80080FFFCCF8091E3008068E7
:102520008093E30083E0111101C082E08093DD021B
:1025300087CF8058823008F083CF8091E10290915C
:10254000E2028C3D23E09207A1F583E08A838AE2D0
:1025500089834FB7F894DE01139620E03EE051E204
:10256000E32FF0E050935700E49120FF03C0E29581
:10257000EF703F5FEF708E2F90E0EA30C0F0C796AB
:102580008D939D932F5F243159F74FBF8091E800C1
:10259000877F8093E8006AE270E0CE0101960E9496
:1025A00063058091E8008B778093E80049CFC0965F
:1025B000E7CF4091E3025091E402292F33272330E3
:1025C000310509F443C078F52130310509F46DC0B7
:1025D0008BE390E0E7E6F7E02230310509F030CFF9
:1025E0002091E800277F2093E8002091E5023091B8
:1025F000E6028217930708F49C0140E0211531059B
:1026000009F062C0411160C08091E80082FDC9CF2D
:102610008091DD02882329F2853019F28091E8004B
:1026200083FFF2CFBECF2132310599F1223231053D
:1026300009F006CF4115510509F441C086EB90E041
:10264000E1E7F6E04130510559F2FACE99278130A1
:102650009105B9F058F0029709F0F2CEE4EBF7E0FB
:10266000E4918E2F90E0E4EBF7E007C0ECEDF7E0AB
:10267000E4918E2F90E0ECEDF7E0009709F4E0CEC6
:10268000AFCFEEECF7E0E4918E2F90E0EEECF7E0C8
:10269000F4CF4115510571F089E090E0E2E9F7E0EF
:1026A0004130510509F49CCFCBCE82E190E0E2EAC3
:1026B000F7E096CF89E090E0E9E7F7E091CF80E49A
:1026C00090E0E7E2F7E08CCF8091DD02882309F407
:1026D00068CF853009F465CF8091E80083FD61CF34
:1026E0008091E80082FD90CF8091E80080FF86CF46
:1026F0008091F3009091F20089279827892721156E
:10270000310519F08830910550F041E0089709F043
:1027100040E08091E8008E778093E8006FCF44918D
:102720004093F1003196215031090196E8CF80386D
:1027300009F086CE8091E800877F8093E800809141
:10274000DE028093F10071CE81117ACE1091E10208
:10275000123008F075CE8091E800877F8093E80002
:102760001093DE020E94B104112371F084E0809383
:10277000DD0242E061EC81E00E94D00442E261ECC3
:1027800082E00E94D0045CCE8091E30087FDEECF12
:1027900081E0EDCF8F929F92AF92BF92CF92DF9266
:1027A000EF92FF920F931F93CF93DF9300D000D04F
:1027B00000D0CDB7DEB70CE711E083E6C82E82E08B
:1027C000D82E4601F12CAA24A394B12CD8018D91C6
:1027D0008D01F894E82FE295EF70F0E021A18F7061
:1027E000A50102C0440F551F8A95E2F7CA01922F36
:1027F000982B91A392A18095892382A3789400C0FD
:10280000E8E8F1E030E020E0E12C4191A42FA2952E
:10281000AF70B0E090968C9190E04F7002C09595AB
:1028200087954A95E2F780FD90C08A2D022E01C05F
:10283000880F0A94EAF7E82A2F5F3F4F28303105C6
:1028400021F7F801319780810E94E20950EA5A95F8
:10285000F1F7D4018D914D01E81609F478C0FD011E
:102860003197E08281E0F82AB1E002381B0709F0D5
:10287000ADCF10917002FF2049F081E08093B40148
:102880000E94D7059093B3018093B2018091B40167
:102890008823B9F08091B2019091B3010E94C805DC
:1028A000069778F0E12FF0E0EF57FD4FD6018D91BC
:1028B0006D018193B9E6CB16B2E0DB06B9F7109251
:1028C000B4010E94920FE82E60917002882309F4EF
:1028D0005DC08E010F5F1F4F86E0F80111928A954F
:1028E000E9F7862F90E0B8018F579D4F0E94E51EB3
:1028F00081112FC08091B5018F5F8093B501863023
:1029000008F442C0E0916F02F0E0EF57FD4F90E015
:1029100080E01192019686309105D9F7F11001C03F
:10292000FE2C8F2D26960FB6F894DEBF0FBECDBFBE
:10293000DF91CF911F910F91FF90EF90DF90CF909B
:10294000BF90AF909F908F90089580E074CF80E00B
:102950008ACF1092B501A0916F02B0E0AF57BD4F82
:102960009E01295F3F4FE12C4D91F80191918F011C
:10297000491731F0AD0141505109FA019083E82E19
:102980000217130789F7CACFE12CC8CF70E06F5741
:102990007D4F80916F0290E08F579D4F0E94101FD6
:1029A000BDCF1F920F920FB60F9211242F933F931A
:1029B0004F935F936F937F938F939F93AF93BF9347
:1029C000CF93EF93FF93C091E900CF708091EC001B
:1029D0001092E9008091F000877F8093F000789456
:1029E0000E9405111092E9008091F00088608093A8
:1029F000F000C093E900FF91EF91CF91BF91AF91AB
:102A00009F918F917F916F915F914F913F912F9106
:102A10000F900FBE0F901F9018951F920F920FB638
:102A20000F9211242F933F934F935F936F937F9354
:102A30008F939F93AF93BF93EF93FF938091E100A8
:102A400082FF09C08091E20082FF05C08091E10011
:102A50008B7F8093E1008091DA0080FF24C0809119
:102A6000D80080FF20C08091DA008E7F8093DA004A
:102A70008091D90080FF99C080E189BD82E189BD44
:102A800009B400FEFDCF81E08093DD028091B802A1
:102A9000811109C00E9439040E9402058091E20060
:102AA00084608093E2008091E10080FF17C08091F4
:102AB000E20080FF13C08091E2008E7F8093E200ED
:102AC0008091E20080618093E2008091D800806272
:102AD0008093D80019BC85E08093DD028091E100ED
:102AE00084FF27C08091E20084FF23C080E189BD7C
:102AF00082E189BD09B400FEFDCF8091D8008F7DB1
:102B00008093D8008091E1008F7E8093E1008091D6
:102B1000E2008F7E8093E2008091E20081608093EA
:102B2000E2008091DE02882309F445C084E08093AE
:102B3000DD028091E10083FF27C08091E20083FFE6
:102B400023C08091E100877F8093E10082E0809341
:102B5000DD021092DE028091E1008E7F8093E10021
:102B60008091E2008E7F8093E2008091E20080619C
:102B70008093E20042E060E080E00E94D004809117
:102B8000F00088608093F000FF91EF91BF91AF91CA
:102B90009F918F917F916F915F914F913F912F9175
:102BA0000F900FBE0F901F90189519BC1092DD0268
:102BB0001092B80278CF8091E30087FD02C081E0D7
:102BC000B6CF83E0B4CF0F931F930E94920F882358
:102BD00071F02FB7F89460917D0270917E02809120
:102BE0007F02909180022FBF1F910F9108958FB7A0
:102BF000F89400917D0210917E0220917F02309125
:102C000080028FBF60915F027091600280916102CB
:102C100090916202600F711F821F931FE5CF0E9487
:102C2000920F81110C94D7050E94E315CB010895F2
:102C300060919602669570E04BE050E080E091E094
:102C40000E948321892B19F481E080939C020E94C9
:102C50000F16909391028093900280919D02846060
:102C600080939D0208959091960290FF3BC09170D1
:102C700081112EC092609093960280919D02816096
:102C800080939D02662351F06091960270919702A5
:102C900080919802909199020E94AF0F60919602E4
:102CA000669570E04BE050E080E091E00E94832167
:102CB000892BA9F00E94280781E08093930220E0ED
:102CC0004091990260919802809197020C94C10FF3
:102CD000823210F09264CFCF880F982BCCCF0E9415
:102CE0001816EACF08956F927F928F929F92AF92BB
:102CF000BF92CF92DF92EF92FF920F931F93CF93E9
:102D0000DF93CDB7DEB72D970FB6F894DEBF0FBEB9
:102D1000CDBFFC011081018183819481892B39F021
:102D20000F3F19F491E01F3F19F090E001C091E0CE
:102D300090FD2EC17F0185E0DE01199601900D9274
:102D40008A95E1F7F701228189859A85222309F482
:102D500072C00E94E60BD82E682F89859A850E9442
:102D6000B706E02FF0E02CE0D29EE00DF11D11241B
:102D700093E0EE0FFF1F9A95E1F7E10FF11DEE0FC3
:102D8000FF1FEF59FC4F85919491F70182818823B1
:102D900009F4DFC081819081E0E08A3020F021E3F6
:102DA00029838A50E1E0A1E0B0E0AC0FBD1FAE0F77
:102DB000B11D805D8C93A1E0AE0F21E030E02C0FBF
:102DC0003D1F2A0F311DD9018CE28C93A2E0AE0F7A
:102DD00021E030E02C0F3D1F2A0F311DD901905DFD
:102DE0009C93A3E0AE0F81E090E08C0F9D1F8A0FB3
:102DF000911DDC0180E28C93EC5F21E030E02C0F30
:102E00003D1F2E0F311DF90110828E010F5F1F4FE4
:102E10008AE0682EF8018081882309F49AC0813005
:102E200009F045C091818281913049F40E5F1F4FB6
:102E30000E94C20D0AC00E948C06D82E92CF9230FA
:102E400039F40E5F1F4F0E940C0D0F5F1F4FE2CF32
:102E5000933029F40E5F1F4F0E94E908F6CF94309B
:102E600019F00F5F1F4FF1CF0E5F1F4F30E020E0D2
:102E7000B8016F5F7F4FF80141818053990B8A3011
:102E8000910550F02150310900F38FE99FE001973F
:102E9000F1F700C00000F6CF629EF001639EF00DD6
:102EA00011249C012E0F3F1F842F8B01E1CFE82FAF
:102EB000F0E0EF51FD4F7490282F2695269526952A
:102EC00030E0F901EF52FD4FC4908770D12C082EED
:102ED00002C0D594C7940A94E2F7E1E0CE22DD2443
:102EE000F901EF53FD4FA490B12C082E02C0B59408
:102EF000A7940A94E2F7F1E0AF22BB24F901EF5462
:102F0000FD4F8490912C02C0959487948A95E2F7A6
:102F100021E082229924C114D10419F081EE0E948B
:102F20000C0DA114B10419F086EE0E940C0D872D32
:102F30000E94C20DAB2819F086EE0E94E908CD2848
:102F400019F081EE0E94E908892809F47ECF8CE20D
:102F50006FCF809156028770D9F0F7018281882364
:102F6000B9F082E02D960FB6F894DEBF0FBECDBF4C
:102F7000DF91CF911F910F91FF90EF90DF90CF9055
:102F8000BF90AF909F908F907F906F900C944B0864
:102F90002D960FB6F894DEBF0FBECDBFDF91CF9157
:102FA0001F910F91FF90EF90DF90CF90BF90AF9067
:102FB0009F908F907F906F9008950F931F93CF9362
:102FC000DF938091E701807FB9F48091E401882349
:102FD00099F0809119021091E8016091E2017091DD
:102FE000E301C091E501D091E60121E06F3F09F0D6
:102FF00020E006E0181305C0DF91CF911F910F91DB
:10300000089531E0209721F0322F7F3F09F030E022
:1030100090E030FD33C0089FF001099FF00D1124AE
:10302000DF01A751BE4F11963C911197371326C06F
:103030003C91361323C012963C91129731111EC059
:1030400013964D915C914C1B5D0B483C5105B0F4BF
:103050008091E7018F7080618093E701E251FE4F1C
:1030600080818F708061808382EE91E00E94731670
:10307000DF91CF911F910F910C94E6060196877016
:10308000B9CF9F92AF92BF92CF92DF92EF92FF9211
:103090000F931F93CF93DF93CDB7DEB761970FB632
:1030A000F894DEBF0FBECDBF8C0185E0F801DE01D4
:1030B0001D9601900D928A95E1F7F801908181812A
:1030C000E2803091E2016091E3014091E50150918D
:1030D000E60121E04115510531F06F3F19F421E07F
:1030E0003F3F09F020E0F22FF1709F2E20FD42C1FA
:1030F000F801C380D48022EEA22E21E0B22EF090FF
:10310000E401F601E41BF50BFF2009F403C1209153
:10311000E701722F707FE83CF10508F0C3C0711120
:1031200080C0FE2C681322C0391320C0E1101EC0DD
:103130002F7020612093E701C5010E9473168091D2
:10314000E701F80185838F2D61960FB6F894DEBFF5
:103150000FBECDBFDF91CF911F910F91FF90EF90E8
:10316000DF90CF90BF90AF909F90089521E0CD2841
:1031700031F08F3F19F421E09F3F09F020E020FD5E
:1031800023C021E02E25F22FF170DF2E20FF3FC05B
:10319000209119024091E80156E0241317C09D8741
:1031A0008E878D859E850E94280C292F22952F7051
:1031B000223008F1243030F59F7009F1F801958133
:1031C000907FE9F4F92CBFCF20E0DDCF30E0529FB3
:1031D000F001539FF00D1124E751FE4F61818613DA
:1031E00006C06081961303C06281E61210C02F5F93
:1031F0003F4F2770D2CF9F7011F0882319F3805E64
:10320000883000F3C8010E9473169D2CDBCFEE209E
:1032100009F499CF8091E70181608093E701F12C57
:1032200092CF681312C0391310C0E1100EC0F8011C
:103230002583C8010E94731686E0F801A2EEB1E072
:1032400001900D928A95E1F77ECF9D878E878D85BF
:103250009E850E94320C882309F1EE20F9F08091BE
:10326000E701803270F02091E2013091E30138876C
:103270002F831986DB86CA868C87CE0107960E942B
:10328000731686E0F801A2EEB1E001900D928A95E6
:10329000E1F70E94DD17FF24F39455CFC8010E9487
:1032A0007316F9CF71110AC082EE91E00E94731675
:1032B00086E0F50111928A95E9F7B1CF68130FC046
:1032C00039130DC0E1100BC0F8012583C8010E941D
:1032D000731686E0F50111928A95E9F734CF9D8740
:1032E0008E878D859E850E94320C8823B9F2EE2050
:1032F000A9F28091E701803220F22091E201309121
:10330000E3013A8329831B82DD82CC828E83CE0146
:103310000196B5CFE83CF105E0F6FE2CEE2009F46D
:10332000BDCF681316C0391314C08091E70180FD2A
:1033300083CF982F907F09F47FCFF8018583903F4A
:1033400009F477CF982F907F905F8F70892B8583BA
:1033500070CF9D878E878D859E850E94320C81114E
:1033600090CF8091E70181608093E701C8010E94BE
:103370007316E9CEEE2009F491CF9D878E878D8557
:103380009E850E94320CF82E882309F487CF86E0B0
:10339000F801A2EEB1E001900D928A95E1F78091DB
:1033A000E2019091E3010E94280C0E94DD17CBCE30
:1033B0001F93CF93DF93CDB7DEB767970FB6F8941F
:1033C000DEBF0FBECDBF342F4B8B252F5C8B6D8B9B
:1033D0007E8B8F8B8E899F896111109258021A8A79
:1033E000198A3D872E876F87998B888B86E0FE012F
:1033F0003D96DE01179601900D928A95E1F7CE0178
:1034000007960E944118811137C086E0FE01379669
:10341000DE01119601900D928A95E1F79F818885D2
:103420002A853B85232B39F08F3F19F481E09F3F9C
:1034300019F080E001C081E080FD1EC02091E8010C
:1034400030E0C90101968770992740911902481709
:10345000190659F196E0929FD001939FB00D112467
:10346000A751BE4FFE01319601900D929A95E1F75A
:103470008093E8010E94E60616E08091190290917F
:10348000E8018917F9F0819FC001112487519E4FEF
:103490000E9441188823B1F08091190290E00196B2
:1034A0008770992780931902E8CF0E94F01010923C
:1034B000E8011092190286E0E2EEF1E0DF011D92D0
:1034C0008A95E9F767960FB6F894DEBF0FBECDBFB9
:1034D000DF91CF911F910895CF93DF93CDB7DEB7E2
:1034E00060970FB6F894DEBF0FBECDBF84B7877F5D
:1034F00084BF0FB6F894A89580916000886180938E
:103500006000109260000FBE80E890E00FB6F89463
:1035100080936100909361000FBE85B7806885BF7E
:1035200085B7806885BF83EC95E090939101809387
:1035300090010E9439040E9402058091E20084609B
:103540008093E20078948091DD02882399F01091B5
:10355000E9001F708091EC0080FD63C280E0182BB1
:103560001092E9008091E80083FD0E9405111F7010
:103570001093E90082E084BD93E095BD9AEF97BD7A
:1035800080936E0010925F021092600210926102AE
:10359000109262020E94920F80930D010E94920F7E
:1035A00081110E94BC1E80910D0180910D0196E059
:1035B000811190E09093700286E0891B80936F02E6
:1035C00084E90E94E20986E60E94E20987E90E94F6
:1035D000E20986EC0E94E20984E30E94E20985E3A5
:1035E0000E94E20908E811E0F0E9EF2EF1E0FF2E79
:1035F000F80181918F010E94E209E016F106C1F7FE
:10360000E3E6F2E0A1E8B2E011921D9222E0EF368B
:10361000F207D1F790E080E00E9401218B3E9E4F9F
:1036200011F00E9486100E94920F811102C00E9428
:10363000C21E90E080E00E9401218B3E9E4F11F05F
:103640000E94861082E090E00E94F3208093AB02FB
:103650000E94640C909376028093750283E090E060
:103660000E94F320682F70E090E080E00E946308E1
:103670008091770281113BC090E080E00E9401219F
:103680008B3E9E4F21F00E9486100E946F1088E0B2
:1036900090E00E94FB2060939602709397028093C3
:1036A00098029093990280919D02836080939D027D
:1036B0006E7F71F40E946F1088E090E00E94FB2002
:1036C0006093960270939702809398029093990268
:1036D0000E942F070E9428078091960280FF04C055
:1036E00060E086950E94331681E0809377028EE039
:1036F00091E0909379028093780268E1E62EF12CB4
:1037000070E4B72EEDE8CE2EE2E0DE2E8091DD02F1
:103710009924939400E112E1853009F4C7C10E9415
:10372000CA13882359F08FB7F89440917D025091C5
:103730007E0260917F02709180028FBFECEAF2E01E
:10374000A1E8B2E010E000E0602E8D908191881534
:1037500009F4CCC1712C992493948825982F992130
:1037600009F4BFC10E94920F882399F07F82688676
:10377000892081E009F480E089870E94D705816073
:10378000782F9B878A874F81588569858B850E9412
:10379000D819F801E455FD4F8081982690828091D8
:1037A0009C02882309F464C080919B02E0919602F8
:1037B000E695E81BE0939202823009F0AEC1F0E09A
:1037C000E359F94FE4910E2F10E057E5652E5FE0C5
:1037D000752E80919302882361F0109293020E94CB
:1037E0000F1690939102809390021092950210927E
:1037F00094020E940F16E0919002F09191029C01B8
:103800002E1B3F0B2F3F3F4798F520918F0222231D
:10381000B1F010928F0220918D0230918E02821BA6
:10382000930B8F3F9F4758F4205D3A4830938E02A8
:1038300020938D0280919D02886080939D028090EC
:10384000940290909502E00FF11FF0939102E093A3
:10385000900280E992E0F3010995809194029091A1
:103860009502892B29F4892819F081E080938F0231
:1038700086E0E4EAF2E0DE01119601900D928A956D
:10388000E1F79090A6028090A7021091A802009103
:10389000A9021092A6021092A7021092A8021092FA
:1038A000A902911003C0882009F448C08091A202A7
:1038B0009091A3020E94C8059C019091A1029923B6
:1038C00009F48EC123333105C8F19F3F19F09F5F82
:1038D0009093A102992059F00E9468099FEF191452
:1038E0000CF491E0899F802D11248093A6028820FA
:1038F00059F00E9468099FEF18140CF491E0899F19
:10390000802D11248093A7023091A6023323B1F0B9
:103910002091A702222391F045EB3403C00111242A
:10392000992309F437C19093A60245EB2403900133
:103930001124332309F432C13093A702111103C0BB
:10394000002309F448C080919F029091A0020E9438
:10395000C8059C0190919E02992309F446C1253621
:103960003105C8F19F3F19F09F5F90939E0211238C
:1039700059F00E9446099FEF11160CF491E0899FBF
:10398000802D11248093A802002359F00E9446093B
:103990009FEF10160CF491E0899F802D11248093E5
:1039A000A9023091A8023323B1F02091A902222369
:1039B00091F045EB3403C0011124992309F4F2C0BE
:1039C0009093A80245EB240390011124332309F4BA
:1039D000EDC03093A9028091A60281110BC08091A5
:1039E000A702811107C08091A802811103C08091B4
:1039F000A90281110E94D70786E0FE013196A4EA50
:103A0000B2E001900D928A95E1F70E941C07909117
:103A1000AA02891709F47ACE0E941C078093AA0291
:103A200075CE80E89CCD8091DD02843009F430C0F1
:103A30000E94280780917C02811109C090927C022B
:103A400080919602817080937B020E947B0F10927E
:103A50007A020FB6F894A895E09260000FBEB0927B
:103A6000600083B7817F846083BF83B7816083BF39
:103A70007894889583B78E7F83BF0FB6F894A89506
:103A800080916000886180936000109260000FBE9A
:103A90008091DC02882351F00E94CA13E1E8F2E031
:103AA0008191811187C0CE16DF06D1F78091DD02AA
:103AB000853009F4B8CF0E94F0100E941C071092C4
:103AC0007C0280917B02882349F08091960281607C
:103AD0008093960260E086950E9433160E94181625
:103AE0001ECE7394990C28E0721238CE0F5F1F4FD0
:103AF0000C30110509F028CE8FEF8C878D871E863C
:103B00000E94D7058160782F988B8F874C855D85C3
:103B10006E8588890E94D81942CE863059F4F0E02B
:103B2000E659F94FE4910E2F10E04BE6642E4FE07A
:103B3000742E4FCE893061F4E695F0E0E959F94FE3
:103B4000E4910E2F10E037E7632E3EE0732E41CE56
:103B50008F3061F4E695F0E0EC59F94FE4910E2FC7
:103B600010E021EA622E2EE0722E33CE853159F418
:103B7000F0E0EF59F94FE4910E2F10E093E1692E38
:103B80009EE0792E26CE00ED17E082EC682E85E0CF
:103B9000782E1FCE81E08093A602C7CE81E080936D
:103BA000A702CCCE81E08093A8020CCF81E0809365
:103BB000A90211CF09BD19BD09B400FEFDCF809146
:103BC000D8008F7D8093D8008091E0008260809340
:103BD000E0008091E00081FDFCCF0E94F01066CFF4
:103BE0002D32314008F073CEA9CE2D32314008F08D
:103BF000BBCEF1CECF92DF92EF92FF926B017C01B0
:103C00000E94920F811117C02FB7F89480917D0206
:103C100090917E02A0917F02B09180022FBFC81ABE
:103C2000D90AEA0AFB0AC0925F02D0926002E092CF
:103C30006102F0926202FF90EF90DF90CF900895C2
:103C400078941F920F920FB60F9211248F939F9327
:103C5000AF93BF9380917D0290917E02A0917F02ED
:103C6000B09180020196A11DB11D80937D029093B9
:103C70007E02A0937F02B0938002BF91AF919F918B
:103C80008F910F900FBE0F901F9018951F920F925B
:103C90000FB60F9211248F939F93AF93BF93809190
:103CA0007A02811113C080917D0290917E02A091D1
:103CB0007F02B09180024196A11DB11D80937D02CB
:103CC00090937E02A0937F02B0938002BF91AF9148
:103CD0009F918F910F900FBE0F901F9018951F937B
:103CE000CF93DF93EC01162F8F8180FF0BC088816B
:103CF00080FF23C0909196029160909396028695E2
:103D00000E9433168F8181FF06C0212F4B816A816B
:103D100089810E94C10F8F8182FF05C08E81882317
:103D200079F00E9418168F8183FF03C081E0809391
:103D30009302DF91CF911F9108950E947B0FE2CFF4
:103D40000E942807F0CF25E0E6E9F2E0DC010190CF
:103D50000D922A95E1F720919B0230919C024091AF
:103D60009D02FC01258336834783089510929D02AE
:103D7000089580919D02089562E070E089E191E0EC
:103D80000C94931F62E070E089E191E00C949C1F19
:103D90000E94B91E882361F083EF92E00E94A31E67
:103DA00081E090E00E947520892B11F40C94B61EDE
:103DB00008958091F202883039F460E083EF92E058
:103DC0000E946F1E1092F2020895CF93DF93D62FB8
:103DD000C72F0E94C81E90E080E00E9475200097C7
:103DE000E9F4ED2FFC2FDC01A451BD4F2C91219360
:103DF000019686309105B9F70E94E3156E5F7F4FFB
:103E00008F4F9F4F6093E8027093E9028093EA021C
:103E10009093EB0281E0DF91CF91089580E0FBCF9A
:103E2000CF93DF93D62FC72F0E94D91E6091E8024F
:103E30007091E9028091EA029091EB020E94FA1DD2
:103E4000ED2FFC2F90E080E02191DC01A451BD4FCB
:103E50002C93019686309105B9F7DF91CF910895A3
:103E60008EE14A9B02C08150E1F74A9BFECF089544
:103E70005A9880E28A95F1F75A9A0895FC013BE03E
:103E80003A95F1F720E090E080E031E040E14A959A
:103E9000F1F7880F4A9B02C08160232742E04A95D0
:103EA000F1F7000040E14A95F1F79F5F6913EECF0B
:103EB00090E19A95F1F799B132E03A95F1F7000067
:103EC00040E14A95F1F792FB992790F992272081DA
:103ED000920F90830895EF92FF920F931F93CF93C9
:103EE000DF931F92CDB7DEB719828C017C01E60EFD
:103EF000F11C0E151F0561F481E09981911180E09C
:103F00000F90DF91CF911F910F91FF90EF90089547
:103F10000E94301F68E0CE0101960E943E1FF8010A
:103F200081938F01E6CF9093FD028093FC02609312
:103F3000FB02529A5A9A08959093FD028093FC02D4
:103F40006093FB0252985A9AEA9AE9E6F0E080817F
:103F50008F7C808308956150770B91E001C0990FA9
:103F60006A95EAF720E031E0911108C0222391F030
:103F70005A9A80E28A95F1F75A980895492F482372
:103F800039F05A9A232740E24A95F1F79695ECCFFB
:103F90005A98F9CF5A98EDCFFF920F931F93CF9372
:103FA000DF93EC018C01060F111DC017D10731F40E
:103FB000DF91CF911F910F91FF900895F9900E948A
:103FC000381F68E08F2D0E94AB1FEFCF1F920F921A
:103FD0000FB60F9211240F931F932F933F934F937C
:103FE0005F936F937F938F939F93AF93BF93EF9361
:103FF000FF93CF93DF931F92CDB7DEB719820E9454
:10400000301F67E0CE0101960E943E1F082F0695E3
:1040100006950695982F92959570202F2570920FF2
:10402000292F2370969596958770920F891344C017
:104030008981811141C08091FB028017E8F120E164
:104040002A95F1F75A9A529A82E08A95F1F700C0C0
:10405000A8E00A9FC00111240091FC021091FD020A
:10406000080F191F5A98F8016581662321F086818F
:1040700097810E94CC1F0E94381FF0E1FA95F1F75A
:104080005A9852985A9A20E12A95F1F7D801129637
:104090006C911297662331F113968D919C910E9439
:1040A0006B1FD801ED91FC91882311F088E001C0CD
:1040B00082E080830E94301F0F90DF91CF91FF91AB
:1040C000EF91BF91AF919F918F917F916F915F9190
:1040D0004F913F912F911F910F910F900FBE0F9015
:1040E0001F901895ED91FC91E1CF0F931F93CF9303
:1040F000DF932091FB02281719060CF471C08C0184
:1041000093E0000F111F9A95E1F7C091FC02D09146
:10411000FD02C00FD11FF894529A5A9825E02A95B3
:10412000F1F70000982F969595708570980F892F5C
:10413000837096959695980F092B0E94381F00C0A2
:1041400067E0802F0E94AB1F80E18A95F1F75298BB
:104150005A9A4A9B17C087E090E04A9915C06D8132
:10416000662321F18E819F810E946B1F81111EC0E9
:10417000529A5A9AE881F98182E08083789482E0A9
:1041800090E00DC000C0E5CF019771F4529A5A9AA1
:10419000E881F98181E08083789481E090E0DF918B
:1041A000CF911F910F91089500C0D7CF0E94301F6B
:1041B00020E22A95F1F75A98529A80E18A95F1F710
:1041C0006A81662321F08B819C810E94CC1F0E9412
:1041D000381FE881F9811082789490E080E0DFCF89
:1041E00084E090E0DCCFF999FECF92BD81BDF89AD2
:1041F000992780B50895A6E1B0E044E050E00C9422
:104200002D21A8E1B0E042E050E00C942D21262FB2
:10421000F999FECF92BD81BDF89A019700B40216BC
:1042200039F01FBA20BD0FB6F894FA9AF99A0FBE6A
:1042300008950396272F0E9408210E940721252F09
:104240000E940821242F0C9408210196272F0E94F8
:1042500008210C940721DC01CB01FC01F999FECF68
:1042600006C0F2BDE1BDF89A319600B40D924150FE
:104270005040B8F7089587FB082E062687FD8195E4
:1042800067FD61950E9477210EF4919507FC819559
:104290000895AA1BBB1B51E107C0AA1FBB1FA6178D
:1042A000B70710F0A61BB70B881F991F5A95A9F7DF
:1042B00080959095BC01CD01089597FB072E16F4CB
:1042C000009407D077FD09D00E94492107FC05D052
:1042D0003EF4909581959F4F0895709561957F4F1D
:1042E0000895EE0FFF1F0590F491E02D0994991B9E
:1042F00079E004C0991F961708F0961B881F7A95DD
:10430000C9F780950895FC014150504030F001906C
:104310000616D1F73197CF01089588279927089578
:04432000F894FFCF3F
:104324000118191A1B1C1D1E1F2021010201C5059D
:10433400CC0CAD0CA90CA50C01E70204E80206ECB8
:1043440002F20208F3020000000001020202020667
:1043540006060909090909090F0F0F0F0F0F151593
:104364001518181818181818181818818283E200DC
:10437400E900EA00B500B600B700CD008301CC0027
:104384008A019201940121022302240225022602B9
:1043940027022A02B300B4006F007000946697C627
:1043A4003435000000000000F4F5F6F731333236FE
:00000001FF
