:100000000C940A040C9451040C9451040C943D2952
:100010000C9451040C9451040C9451040C9451040C
:100020000C9451040C9451040C94E6160C94AA16EA
:100030000C949D270C9451040C9451040C9451047D
:100040000C9451040C9451040C9451040C945104DC
:100050000C9451040C9477270C9451040C94510483
:100060000C9451040C9451040C9451040C945104BC
:100070000C9451040C9451040C9451040C945104AC
:100080000C9451040C9451040C9451040C9451049C
:100090000C9451040C9451040C9451040C9451048C
:1000A0000C9451040C9451040C9451040501090260
:1000B000A10185020901A1000509190129081500FE
:1000C0002501950875018102050109300931158165
:1000D000257F95027508810609381581257F9501D0
:1000E00075088106050C0A38021581257F95017572
:1000F000088106C0C005010980A101850319012AF4
:10010000B700150126B700950175108100C0050CD8
:100110000901A101850419012AA002150126A002E6
:10012000950175108100C005010906A1018505052D
:100130000719E029E71500250195087501810205D9
:1001400007190029EF1500250195F07501810205B9
:10015000081901290595057501910295017503910D
:1001600001C00660FF0961A1010962150026FF00B8
:100170009520750881020963150026FF00952075FA
:10018000089102C005010906A101050719E029E748
:1001900015002501950875018102950175088101F9
:1001A0000507190029FF150026FF0095067508812F
:1001B000000508190129059505750191029501753C
:1001C000039101C0000101010101010101010202CD
:1001D00002020202020202030303030303030304F5
:1001E00004040404040405050505050606060606C0
:1001F000070707070708080808090909090A0A0A7A
:100200000B0B0B0C0C0C0D0D0D0E0E0E0F0F0F101B
:1002100010111111121213131414151516161717A5
:10022000181819191A1A1B1B1C1D1D1E1E1F202011
:10023000212222232424252626272829292A2B2C5B
:100240002D2D2E2F30313232333435363738393A7E
:100250003B3C3D3E3F404142434445464748494A76
:100260004C4D4E4F50515354555658595A5B5D5E44
:100270005F616264656668696B6C6D6F70727375DF
:1002800077787A7B7D7E8082838587888A8C8E8F43
:1002900091939596989A9C9EA0A2A3A5A7A9ABAD71
:1002A000AFB1B3B5B7BABCBEC0C2C4C6C9CBCDCF5F
:1002B000D1D4D6D8DBDDDFE2E4E7E9EBEEF0F3F50D
:1002C000F8FAFDFFFFAA7F55402223252628292A78
:1002D0002C2D2F3032333536383A3B3D3E404243A9
:1002E0004547494A4C4E5051535557595A5C5E60E8
:1002F00062646668696B6D6F71737577797B7D7FFA
:1003000081838587898A8C8E90929496989A9C9EF8
:100310009FA1A3A5A7A8AAACAEAFB1B3B4B6B8B914
:10032000BBBCBEBFC1C2C3C5C6C7C9CACBCCCDCE7C
:10033000D0D1D2D2D3D4D5D6D7D7D8D9D9DADADB5F
:10034000DBDBDCDCDCDCDCDDDDDDDDDCDCDCDCDCEB
:10035000DBDBDBDADAD9D9D8D7D7D6D5D4D3D2D22A
:10036000D1D0CECDCCCBCAC9C7C6C5C3C2C1BFBE12
:10037000BCBBB9B8B6B4B3B1AFAEACAAA8A7A5A37D
:10038000A19F9E9C9A98969492908E8C8A8987853C
:1003900083817F7D7B79777573716F6D6B6968661B
:1003A0006462605E5C5A5957555351504E4C4A49ED
:1003B00047454342403E3D3B3A3836353332302F95
:1003C0002D2C2A2928262523222C002C008B00E204
:1003D00000E300E0004E0001510500190006001B7B
:1003E000001D00E1004B0001510A00090007001642
:1003F00000040039004D0003511700150008001AD1
:100400000014002B004A0003512200210020001F8D
:10041000001E003500490002513E003D003C003BFB
:10042000003A002900460001513F004000410042CF
:10043000004300440045004C002300240025002612
:100440000027002D002E002A001C0018000C0012AE
:100450000013002F00300031000B000D000E000FC4
:10046000003300340028004B001100100036003724
:10047000003800E50052004E002C008A008800E69B
:1004800000E400500051004F000100010001000194
:100490000001000100005C010001000100010001F9
:1004A0000001000100DF5C0100010001000100010A
:1004B0000001000100010001000100010001000134
:1004C0000001000100010001000100010001000124
:1004D0000001000100010001000100010001000114
:1004E000000100C45CC35C010001000100010001C7
:1004F00000010001000100010001000100010001F4
:1005000000010001000100010001000100010001E3
:1005100000010001000100010001000100010001D3
:1005200000010001000100010001000100010001C3
:1005300000010001000100010001000100010001B3
:1005400000010001000100010001000100010001A3
:100550000001000100010001000100010001000193
:100560000001000100010001000100010001000183
:100570000001000100010001000100010001000173
:100580000001000100010001000100010001000163
:100590000001000100010001000100010001000153
:1005A0000001000100010001000100010001000143
:1005B0000001000100010001000100010001000133
:1005C0000001000100010001000100010001000123
:1005D0000001000100010001000100010001000113
:1005E0000001000100010001000100010001000103
:1005F00000010001000100010001000100010001F3
:1006000000010001000100010001000100010001E2
:1006100000010001000100010001000100010001D2
:1006200000010001000100010001000100010001C2
:1006300000010001000100010001000100010001B2
:1006400000010001000100010001000100010001A2
:100650000001000100010001000100010001000192
:100660000001000100010001000100010001000182
:100670000001000100010001000100010001000172
:100680000001000100010001000100010001000162
:100690000001000100010001000100010001000152
:1006A0000001000100010001000100010001000142
:1006B0000001000100010001000100010001000132
:1006C0000001000100010001000000000000000026
:1006D000000000000000000000000000000000001A
:1006E000000000000000000000000000007E0F007D
:1006F000D4FFFFFFC70000007800000000000000EA
:10070000002A2B280000000000000000000000006C
:100710000000000029000000002C1E3420212224AB
:10072000342627252E362D3738271E1F2021222339
:100730002425263333362E37381F040506070809CB
:100740000A0B0C0D0E0F1011121314151617181991
:100750001A1B1C1D2F3130232D35040506070809EF
:100760000A0B0C0D0E0F1011121314151617181971
:100770001A1B1C1D2F3130354C7F3F1F643214640F
:100780003214783C1E1E140A0509025B00030100A6
:10079000A0FA090400000103010100092111010070
:1007A000012240000705810308000A090401000234
:1007B0000300000009211101000122220007058227
:1007C00003200001070503032000010904020001C2
:1007D0000300000009211101000122B60007058471
:1007E0000320000A120110010000000809125146FE
:1007F0000100010200010A0374006500390036009F
:1008000000000C0365003300770032007100000027
:100810000403090411241FBECFEFDAE0DEBFCDBF11
:1008200004B603FE27C08091120390911303A09198
:100830001403B09115038730904BA740B04BD1F40F
:1008400010921203109213031092140310921503C6
:1008500014BE84B7877F84BF0FB6F894A8958091A3
:100860006000886180936000109260000FBEE0E03D
:10087000F8E3099511E0A0E0B1E0E0EEF5E502C093
:1008800005900D92A03AB107D9F723E0A0EAB1E0B4
:1008900001C01D92A231B207E1F70E94B5210C946C
:1008A000EE2A0C940000E8EDF0E080818E7F8083DA
:1008B0001092E2001092DA001092E100A0EEB0E097
:1008C0008C9181608C9380818F77808319BCA7ED98
:1008D000B0E08C918E7F8C9380818F7E808310928C
:1008E000C50208952091E4003091E50085E69091DD
:1008F000EC0090FF06C09091E80090FF06C080E0F9
:1009000008959091E80092FDFACF9091EA02992320
:1009100091F0953091F09091EB0095FD10C04091D1
:10092000E4005091E5002417350709F381509A013E
:10093000F1F684E0089582E0089583E0089581E06F
:100940000895EF92FF920F931F93CF937C018B0139
:100950000E947204C82F811117C08091E80085FDA4
:100960000BC08091E8008E778093E8000E947204AB
:10097000882399F3C82F08C0F70181917F018093E4
:10098000F1000150110949F78C2FCF911F910F9160
:10099000FF90EF9008958091EC0287FF13C0809143
:1009A000E80082FF06C08091E8008B778093E80022
:1009B00004C08091EA028111F2CF08958091EA0289
:1009C0008823D9F38091E80080FFF8CF8091E80078
:1009D0008E77ECCF982F9093E900242F762F50E05C
:1009E000891731F07091EC002091ED005091F000EA
:1009F00021FD07C09F5F973071F78093E90081E088
:100A000008953091EB003E7F3093EB003091ED0084
:100A10003D7F3093ED003091EB0031603093EB007F
:100A20007093EC002093ED005093F0002091EE00C5
:100A300027FDE0CF80E00895CF92DF92EF92FF9202
:100A40000F931F93CF93DF93C8EDD0E088818F7E03
:100A50008883E7EDF0E080818160808384E082BF5D
:100A600081E08093C50288818E7F888302EE10E04A
:100A7000F80110821092DA0081EEC82ED12CF60116
:100A8000108288818F7788838881806888838881B5
:100A90008F7D888319BC1092EA021092EB021092AB
:100AA000E9021092E80290EEE92EF12CF701808124
:100AB0008B7F808388818160888342E060E080E072
:100AC0000E94EA04F60180818E7F8083F801808194
:100AD00081608083808188608083F70180818E7F40
:100AE0008083888180618883DF91CF911F910F91EE
:100AF000FF90EF90DF90CF900895FC018091F2027B
:100B00009091F30286179707A0F06115710529F4FB
:100B10009091E8009E779093E80090E06115710550
:100B200051F4911108C08091E80082FF35C080E047
:100B30000895BC01F2CF8091EA028823C9F1853083
:100B4000C9F18091E80083FD31C08091E80082FD09
:100B5000EACF8091E80080FFE1CF2091F3008091FF
:100B6000F200322F282F6115710519F02830310558
:100B700058F091E02830310509F090E02091E8002C
:100B80002E772093E800CACF81918093F1006150C5
:100B900071092F5F3F4FE7CF8091EA02882341F030
:100BA000853041F08091E80083FFBDCF81E008955A
:100BB00082E0089583E00895089580E0089580918B
:100BC000C702089587E797E790930108809300088C
:100BD00088E19AE00FB6F894A895809360000FBE64
:100BE00090936000FFCF9C014FB7F8948091700202
:100BF00090917102A0917202B09173024FBF821B5B
:100C0000930B08952FB7F894609170027091710260
:100C100080917202909173022FBF08952FB7F894BC
:100C20008091700290917102A0917202B091730252
:100C30002FBF089580916B02811110926B0208956D
:100C400080916A0290916902892B90916802892BA8
:100C50008093A20190916B029923A1F0892B80933C
:100C6000A20180911801882341F18091860287FFBB
:100C700024C08EE1E4EAF1E090E0815000F59111AA
:100C80000E941A06E0918902F0918A023097E1F001
:100C900080911801882359F08091860287FF07C050
:100CA0008091A2018093A30185E08093A20102803C
:100CB000F381E02D82EA91E0099486E0DBCF219177
:100CC0002223D9F29F5FD9CF0895909118019923DB
:100CD000D1F09091860297FF16C0E82FE695E69531
:100CE000E695EE31D8F4F0E0EE55FE4F282F277050
:100CF00081E090E001C0880F2A95EAF78095928103
:100D0000892382830895E2EAF1E09281891301C088
:100D10001282319691E0E83AF907B9F70895909177
:100D200018019923C1F09091860297FF14C0E82F13
:100D3000E695E695E695EE31F8F4F0E0EE55FE4FD7
:100D4000877021E030E001C0220F8A95EAF78281A6
:100D5000822B82830895A4EAB1E0EFEF90E02D9119
:100D6000821751F0EF3F19F4211101C0E92F9F5F65
:100D70009630A9F7EF3F09F408950E2E000CFF0BF3
:100D8000EE55FE4FE6CF990F990F990F890F982FC7
:100D9000977086958695869525E0829FA0011124FF
:100DA00070E060E080E0FA01E60FF71FE55DFD4FBF
:100DB000208130E0092E02C0369527950A94E2F78B
:100DC00021703327062E01C0220F0A94EAF7822BE6
:100DD0006F5F7F4F6530710531F70895990F990F57
:100DE000990F890F982F977071E001C0770F9A952E
:100DF000EAF786958695869525E0829FC0011124A5
:100E000050E040E0A62FB0E0FC01E40FF51FE55DE7
:100E1000FD4F60819D01042E02C0369527950A94EE
:100E2000E2F72170219526272723262720834F5F6D
:100E30005F4F4530510541F7089580912A02909106
:100E4000F901981301C008958F5F8770FACF882346
:100E500041F0809590916A02892380936A020C94F4
:100E600020060895882339F090916A02892B809397
:100E70006A020C94200608952091EF013091F00150
:100E80002817390771F09093F0018093EF01E091FA
:100E90008902F0918A02309721F00084F185E02DDB
:100EA000099408952091ED013091EE01281739073A
:100EB00071F09093EE018093ED01E0918902F09141
:100EC0008A02309721F00680F781E02D0994089579
:100ED000E0918902F0918A02309721F00190F0812F
:100EE000E02D099480E00895FA01811101C0FB0111
:100EF0000994E7E9F2E01182828184608283089597
:100F00008091B402982F9E7F29F481708260809333
:100F1000B40208958434E8F381708264F8CFAF920C
:100F2000BF92CF92DF92EF92FF920F931F93CF93D6
:100F3000DF93C82ED62EE42FF0E0EC53FE4F611164
:100F400015C0E4919E2F8E2FD90111968C93119785
:100F5000EC9312969C93DF91CF911F910F91FF908C
:100F6000EF90DF90CF90BF90AF900895E62EF12CD8
:100F7000E491FE2F0E2F10E046E0849FC001112463
:100F8000CFEFD0E0BE010E94A02A8C2D90E0880F08
:100F9000991FA5E5A69FA001A79F500D1124841BB2
:100FA000950BB82EBB0CB80ECE018E199F09809FF1
:100FB000A001819F500D909F500D1124952FDB9C17
:100FC000D0011124AB2FBB276E01CA1ADB0AC09EC9
:100FD000D001C19EB00DD09EB00D11248B2F6E019B
:100FE000CB18D1085601AE9C6001AF9CD00CBE9CC2
:100FF000D00C1124CD2CDD24CC19DD09C09F70014B
:10100000C19FF00CD09FF00C112462307105B1F03B
:1010100058F46115710579F06130710509F494CFC8
:101020008E2FE52F9B2F90CF6430710571F048F023
:1010300066307105A9F78E2FEF2D86CF852F9F2D56
:1010400083CFEB2F852F9F2F7FCF8F2DE52FFBCFCA
:101050000E940E062091A202211104C02091A30239
:10106000222321F090939F0280939E022091A4025C
:10107000211104C02091A502222321F090939C020B
:1010800080939B02E0918902F0918A02309749F0A7
:1010900082E08093A0020480F581E02D80EA92E056
:1010A0000994089590E080E00E94520790E080E06B
:1010B0000E943C0710926902109268020E9420066A
:1010C00086E0E0EAF2E0DF011D928A95E9F71092EE
:1010D0009D0210929A021092F2010C9428086093DB
:1010E000F7027093F8028093F9029093FA020C943D
:1010F00052080F931F936091F7027091F80280914C
:10110000F9029091FA028B019C01067011272227A7
:101110003327063011052105310529F468601F9138
:101120000F910C946F08677FFACF0F931F9341E0E4
:1011300050E060E070E004C0440F551F661F771F49
:101140008A95D2F7CB01BA016095709580959095FC
:101150000091F7021091F8022091F9023091FA0201
:1011600060237123822393231F910F910C946F08A6
:10117000909167028095892380936702282F2770BA
:1011800071F4282F082E000C330B9217130639F038
:101190008595859585950E9495081092670208951A
:1011A0000F931F9341E050E060E070E004C0440FF3
:1011B000551F661F771F8A95D2F78091F70290918D
:1011C000F802A091F902B091FA028A019B01082B62
:1011D000192B2A2B3B2BC901B8011F910F910C949D
:1011E0006F0860936C0270936D0280936E0290930F
:1011F0006F020C9452088D3ED9F49091A30297FF90
:101200001DC01092A3028091A202811106C080919C
:10121000A302811102C010929D028091A40281114B
:1012200006C08091A502811102C010929A02089511
:101230008E3ED9F49091A30219161CF39FE0980FEB
:10124000983008F03FC0815F990B21E030E0A901A0
:1012500002C0440F551F8A95E2F7CA01809590910C
:10126000A10289238093A102CECF9091A2028F3E4A
:1012700029F497FFE3CF1092A202C5CF803F19F463
:101280001916CCF3DBCF9091A402893F29F41916EB
:10129000ACF61092A402B7CF8A3F19F497FFCECFD5
:1012A000F8CF8B3F39F49091A50297FFC7CF1092EA
:1012B000A502A9CF8C3F09F0C1CF9091A5021916C4
:1012C000B4F3BCCF8D3F31F48091F2018E7F8093D7
:1012D000F20199CF8E3F21F48091F2018D7FF7CFFB
:1012E0008F3F09F090CF8091F2018B7FF0CF882360
:1012F00009F459C0823871F40E94680781FF53C015
:1013000089E30E948F060E94200689E30E946506F9
:101310000C942006833859F40E94680780FF43C06C
:1013200083E50E948F060E94200683E5EFCF843874
:1013300059F40E94680782FF36C087E40E948F0636
:101340000E94200687E4E2CF9CEF980F913AF0F2DA
:1013500090E2980F983088F4877021E030E0A9017E
:1013600002C0440F551F8A95E2F7CA0180959091FB
:101370006A02892380936A02CBCF9BE5980F933052
:1013800020F490E080E00C94520798E5980F973194
:1013900020F490E080E00C943C078D3E20F00E9409
:1013A000FB080C94280808958091F20180FD16C076
:1013B00081FD16C082FD16C080919A028823A1F09B
:1013C000883280F428E0829FC001112468E270E036
:1013D0000E94B42A862F672B39F0089582E0089581
:1013E00084E0089588E0089581E008958091F201F5
:1013F00080FD14C081FD14C082FD16C080919D0245
:10140000882381F0843180F422E3829FC00111247B
:1014100064E170E00E94B42A862F08958CE008955C
:1014200089E1089585E0089582E308958D3E31F4C1
:101430000E94F60981958093A30208958E3E19F4C7
:101440000E94F609F8CF8F3E31F40E94F60981958B
:101450008093A2020895803F19F40E94F609F8CF04
:10146000893F29F40E94D4098093A40208958A3FF9
:1014700021F40E94D4098195F7CF8B3F31F40E946B
:10148000D40981958093A50208958C3F19F40E9498
:10149000D409F8CF9FE0980F983070F4815F990BD2
:1014A00021E030E001C0220F8A95EAF78091A10285
:1014B000822B8093A10208958D3F31F48091F20137
:1014C00081608093F20108958E3F21F48091F201B2
:1014D0008260F7CF8F3FB9F78091F2018460F1CF3E
:1014E000F894E82FE295EF70F0E031A1282F2F70EB
:1014F00081E090E001C0880F2A95EAF7982F909537
:10150000932391A392A1892B82A37894089590911B
:10151000860292FF06C0282F28712830F9F4877FB1
:10152000846093FF06C0282F28712831F1F4877E4C
:1015300084612091870220FF06C0382F387138302F
:10154000D9F4877F816021FF06C0282F28712831B8
:10155000D1F4877E816194FD877E0895282F2471C0
:101560002430F9F68B7F8860DCCF282F247124315A
:1015700001F78B7E8861DDCF382F3171313019F75B
:101580008E7F8860E0CF282F2171213121F78E7E58
:101590008861E1CFCF9384E090E00E944A2AC82F6F
:1015A00081E290E00E944A2A982F8C2FCF910895D3
:1015B0000F931F93CF93DF9320E1629FE0011124EB
:1015C00050E0440F551FC40FD51F30EC839FC00D52
:1015D000D11D1124CE0186960E944A2A082F10E0C0
:1015E000102F0027CE0187960E944A2A9801282BA7
:1015F000C901DF91CF911F910F910895462F84303B
:1016000038F47C3028F4683018F4672F0C94D80A2A
:1016100090E080E00895CF93DF930E94FE0AEC01F2
:1016200082389105A9F1D8F58133910509F496C066
:1016300048F58932910509F48AC08A9709F495C062
:10164000C11521E5D20708F0BCC0C11580E5D80757
:1016500008F018C1C83ED10508F09CC0C13ED105B4
:1016600060F5C83AD10508F087C0C53AD10508F041
:1016700001C1C130D10509F108F444C0C430D1051D
:10168000E0F440C08533910509F45AC0C997C1F60A
:1016900080918602837089F0C0EED0E00EC0833E58
:1016A000910599F170F4803E910501F1823E91051A
:1016B00039F68091860282FD21C0CE01DF91CF9163
:1016C0000895863E910561F1873E910571F1843E52
:1016D000910509F0B5CF8091870281FFEECF80910F
:1016E0008602C7EED0E084FD0DC0E7CF8091860270
:1016F00080FD17C19091870290FFDFCFC3EED0E04D
:1017000084FFDBCFD0E0C0E0D8CF8091860282FD9D
:101710000BC19091870290FDBFCF84FDF3CFCDCF59
:101720008091860283FDDDCFC8CF8091860283FD44
:10173000FEC09091870291FFF0CFC4EED0E0BDCF04
:101740008091860285FFB9CFC9E2D0E0B6CF809103
:10175000860285FFB2CFC5E3D0E0AFCF809186028D
:1017600086FFABCFCAE2D0E0A8CF8091860286FF89
:10177000A4CFC1E3D0E0A1CFCF3BD10518F6C85A22
:10178000D0E0CC0FDD1FC25BDE4F0990D881C02DA9
:10179000D46493CFC11520E2D20758F4C11581E07B
:1017A000D80708F08ACFCD3ED10508F4ABCFD0657D
:1017B00084CFC11520E4D20708F4A4CFDF70D06A2B
:1017C0007CCFC11585E5D80718F5C11524E5D207EA
:1017D00008F08DC0C11583E5D80708F074C0C115A5
:1017E00022E5D20708F46AC0CE018370992721E070
:1017F00030E002C0220F331F8A95E2F7C695C695E6
:1018000080E2C89FE0011124C22BD32BDC6855CFA6
:10181000C11589E5D807A8F4C11528E5D20708F055
:101820006BC0C11586E5D80708F06CCF8C2F0E94DD
:10183000870AC82FD0E0DC2FCC27CC27DF71D062FD
:101840003CCFC1152AE5D20708F45BC0CE01905603
:101850008115904208F056CF8D2F8F710E94870A14
:1018600090E0982F882788279F71DD27D062C82BAA
:10187000D92B23CFC55AD0E0C55BDE4FC881D0E05D
:10188000D0641BCFCE01F4E096958795FA95E1F7E9
:1018900083709C2F937021E030E002C0220F331F31
:1018A0009A95E2F73C68382BC695C695C37080E2DE
:1018B000C89FE0011124C22BD32BFFCEDC2FCC27F5
:1018C000C16FD06AFACECE018370992721E030E053
:1018D00002C0220F331F8A95E2F7C695C69580E2B3
:1018E000C89FE0011124C22BD32BDA68E6CEDC2F8F
:1018F000CC27C46FD06AE1CEDC2FCC27C06FD06A72
:10190000DCCE8C2F8F700E94870A34E0D695C79565
:101910003A95E1F7CF70D0E0DC2FCC27D069C82B07
:10192000CCCEC9E3D0E0C9CEC2EED0E0C6CEC6EE82
:10193000D0E0C3CEBF92CF92DF92EF92FF920F938F
:101940001F93CF93DF938C01C090F702D090F802E1
:10195000E090F902F090FA0280916C0290916D0291
:10196000A0916E02B0916F02C82AD92AEA2AFB2AF6
:10197000CFE1D0E0BC2ED701C6010C2E04C0B69535
:10198000A795979587950A94D2F780FD0EC0219769
:1019900088F7B12C8B2DDF91CF911F910F91FF9084
:1019A000EF90DF90CF90BF900895B8018C2F0E94E8
:1019B0000B0B019761F3EECFCF93DF93EC010E9405
:1019C0009A0CBE01DF91CF910C940B0B0E94DC0CA2
:1019D000292F2F70E92FE295EF70E250EE30E0F4FE
:1019E000F0E0EB50F34F0C94C82A030D030D0C0DDF
:1019F0000C0D0E0D0C0D0C0D0C0D030D030D130D28
:101A00000C0D0C0D130D803F19F020F4883E20F4CE
:101A100081E00895843FE1F380E00895883EC0F3BB
:101A2000813FD1F7F5CF822F8695869586950895CB
:101A30008F929F92AF92BF92CF92DF92EF92FF92DE
:101A40000F931F93CF93DF93D0E0C0E05E0180EC53
:101A5000A80EB11C7E011AC0F601EC0FFD1F859087
:101A60009490692DCE0186960E945E2A682DCE0143
:101A700087960E945E2A22960C171D0769F780E15F
:101A8000E80EF11CE8010A151B0551F08E01005FFC
:101A90001F4FC70187539C4F6C01CC1ADD0ADCCF66
:101AA0000115134099F6DF91CF911F910F91FF908F
:101AB000EF90DF90CF90BF90AF909F908F90089560
:101AC000CF93DF93C6E2D3E060E0CE010E945E2AAE
:101AD0002196C11584E0D807B9F7DF91CF91089519
:101AE000CF93DF9300D01F92CDB7DEB79091EA027B
:101AF000943011F589837B836A839093E9008FEF9B
:101B00009091E800815095FD06C095ED9A95F1F70A
:101B100000008111F5CF8091E80085FF0DC050E0F5
:101B200040E063E070E0CE0101960E94A104809144
:101B3000E8008E778093E8000F900F900F90DF9170
:101B4000CF910895BC0184E00C94700DBC0183E03A
:101B50000C94700D24E02093E9002FEF3091E80001
:101B6000215035FD06C035ED3A95F1F70000211101
:101B7000F5CF2091E80025FF0BC050E040E066E083
:101B800070E00E94A1048091E8008E778093E800C5
:101B90000895CF93DF93209118012223B9F120916A
:101BA000860227FF33C060E224E02093E9002FEF94
:101BB0003091E800215035FD06C035ED3A95F1F73A
:101BC00000002111F5CF2091E80025FF1CC0EC0199
:101BD0008091180170E050E040E0811104C050E0B5
:101BE00040E068E070E0CE010E94A1048091E8002E
:101BF0008E778093E80080E2FE01A8ECB2E00190CD
:101C00000D928A95E1F7DF91CF91089568E021E088
:101C1000CCCFCF93882309F4B0C0C82F8238C1F449
:101C20000E94680781FDA9C089E30E948F060E9477
:101C300020062FEF81EE94E0215080409040E1F7A4
:101C400000C0000089E30E946506CF910C94200635
:101C50008338A1F40E94680780FD8FC083E50E944D
:101C60008F060E9420062FEF81EE94E021508040E5
:101C70009040E1F700C0000083E5E5CF8438A1F48F
:101C80000E94680782FD79C087E40E948F060E9447
:101C900020062FEF81EE94E0215080409040E1F744
:101CA00000C0000087E4CFCF8CEF8C0F813A90F515
:101CB00080911801882301F18091860287FF1CC062
:101CC000EC2FE695E695E695F0E0EE55FE4F828125
:101CD00090E04C2F477021E030E002C0220F331F0C
:101CE0004A95E2F782239323892B81F08C2F0E945F
:101CF00065060E9420060AC0E4EAF1E08AEA91E063
:101D00002191C21799F38E179F07D1F78C2F0E944C
:101D10008F069BCF80E28C0F883068F4C77021E07B
:101D200030E001C0220FCA95EAF780916A02822B47
:101D300080936A028ACFEBE5EC0FE33040F4F0E0E9
:101D4000E55BFE4F808190E0CF910C945207E8E56F
:101D5000EC0FE73150F4F0E0EE0FFF1FE25BFE4FB7
:101D600080819181CF910C943C07CD3E30F08C2F37
:101D70000E94160ACF910C942808CF9108951F93C2
:101D8000CF93DF93182FD0E0C0E0893311F4C0E582
:101D9000D0E0812F0E94090E209731F4812FDF912E
:101DA000CF911F910C9477098FE99FE00197F1F78C
:101DB00000C000002197F0CF0F931F93CF93DF93C4
:101DC000C62FD42F122FFC0182818823A1F06093AB
:101DD000F6020E940E069093F5028093F402C770FB
:101DE00081E001C0880FCA95EAF7DF91CF911F917A
:101DF0000F910C9432078091F602681335C08091E0
:101E0000F4029091F5020E94F305883C910560F57B
:101E100000E20D0FCD17B9F080E28C0F883040F44E
:101E2000C77081E001C0880FCA95EAF70E942707B2
:101E3000083008F581E09D2F977001C0880F9A95B2
:101E4000EAF70E943207812F0E94BF0E0830D0F4BB
:101E5000D77081E001C0880FDA95EAF7DF91CF9162
:101E60001F910F910C942707C77081E001C0880F64
:101E7000CA95EAF7F3CF812FDF91CF911F910F9190
:101E80000C94BF0EDF91CF911F910F910895809117
:101E9000B40280FD0AC0E8ECF1E0118210821282E7
:101EA000339631E0EC3EF307C1F7539A8BB1877F4D
:101EB0009BB198602FB7F894E8ECF1E031E0EC3E8C
:101EC000F30741F42FBF8FE594E00197F1F700C0CD
:101ED00000000895319148E09BB9000000C037FF31
:101EE0008BB9330F000000C000C000C08BB900C028
:101EF0004A9591F7E3CFEF92FF920F931F93CF9301
:101F0000DF937C01FC018481811109C081E084831D
:101F10001092EC0192E090930C0180930B01C8ECBD
:101F2000D1E0FE01118210821282339681E0EC3EF4
:101F3000F807C1F710E000E08091EC01082E000CDA
:101F4000990B08171907BCF180910C01082E000CA1
:101F5000990B801791077CF19E014091B702609127
:101F6000B6028091B5020E948F070F5F1F4F239624
:101F70000C30110509F70E94470F80910B019091D9
:101F8000EC01980F9093EC0120910C01280F209305
:101F90000C01121614F49B303CF0819580930B01D8
:101FA000813011F4F7011482DF91CF911F910F91CD
:101FB000FF90EF900895198218821A82D6CFEF927F
:101FC000FF921F93CF93DF93EC0188ECE82E81E022
:101FD000F82E10E08C8197014091B7026091B60213
:101FE000810F0E948F071B5E83E0E80EF11C1C3FEF
:101FF00089F70E94470F9A818C8190FF08C08F5FFC
:102000008C83DF91CF911F91FF90EF9008958150C5
:10201000F7CF9F92AF92BF92CF92DF92EF92FF9253
:102020000F931F93CF93DF93EC018A81BB24B3946A
:1020300080FF02C0BB24BA948C81811108C081E06A
:10204000B8125DC08BE08093C70181E08C8328ECDF
:10205000E22E21E0F22E10E000E03CE0932EF701AA
:1020600011821082128294E0C92ED12CA12C809171
:10207000C7018A0D8D300CF445C0692D0E94922A4B
:10208000892F082E000C990B0817190791F48091DD
:10209000B7028C9DA0018D9D500D1124559547953B
:1020A0005595479597016091B6028091B5020E94BF
:1020B0008F07AB0CF1E0CF1AD108C9F60F5F1F4FA5
:1020C00083E0E80EF11C0C30110549F60E94470F21
:1020D0008091C70191E0B9121EC0811117C08BE039
:1020E0008093C7011C82DF91CF911F910F91FF90C8
:1020F000EF90DF90CF90BF90AF909F900895109297
:10210000C701A3CF87FFBDCF845FBBCF8150809332
:10211000C701BC82E8CF90E00196B8010E94B42AC2
:102120008093C7018C83DFCF9091B40290FF0CC0E5
:10213000E8ECF1E0818360834283339691E0EC3EEA
:10214000F907C1F70C94470F0895CF93DF9300D0A0
:102150001F92CDB7DEB79091B40290FF0AC09E01E6
:102160002F5F3F4F0E948F074B8169818A810E94B8
:1021700094100F900F900F90DF91CF910895CF930F
:10218000DF93EC01EC81F0E0E753FD4F4491E4EB89
:10219000F2E0628181810E94A5108C818F5F8C8327
:1021A000DF91CF910895CF93DF93EC01E4EBF2E060
:1021B000438162818C810E94A5108C818F5F8C830A
:1021C000DF91CF910895E4EBF2E080818E7F8083F0
:1021D0000E947907E7E9F2E08281816082832FEF34
:1021E00080E792E0215080409040E1F700C000007D
:1021F0000C94470F8091C601811110C08091D800C6
:1022000080618093D8008AE18A95F1F700C08091BF
:10221000D90080FD0AC082E08093C60181E09091E0
:10222000C601913009F080E0089581E0F5CF6BEEB2
:102230007EEF90E080E00E947C2A60E082E090E007
:102240000E945E2A60E083E090E00E945E2A109285
:102250006C0210926D0210926E0210926F0260E09A
:1022600084E090E00E945E2A60E081E290E00E94BB
:102270005E2A60E085E090E00E945E2A60E086E0F1
:1022800090E00E945E2A6FEF87E090E00E945E2A55
:1022900040E050E0BA0188E090E00E94702A60E0DF
:1022A0008DE090E00E945E2A40E050E0BA0188E1B3
:1022B00090E00E94702A60E087E190E00E945E2A30
:1022C00040E050E0BA018CE190E00E94702A60E0AA
:1022D00080E290E00E945E2A40E050E0BA0188E18E
:1022E00090E00E94702A40E050E0BA018FE090E058
:1022F0000E94702A40E050E0BA0183E190E00C9423
:10230000702ACF92DF92EF92FF926B017C010E94C4
:102310008007B701A60188E090E0FF90EF90DF9082
:10232000CF900C94702A3F924F925F926F927F925F
:102330008F929F92AF92BF92CF92DF92EF92FF92D5
:102340000F931F93CF93DF9300D01F92CDB7DEB7CB
:10235000182F562E042F422E9091B40290FF3BC0AE
:10236000E92FE695AE2FB0E0A75DBE4F8C9180932C
:1023700097029E7F923009F043C09E012F5F3F4F2E
:10238000812F0E948F074B8169818A810E9494105E
:102390008091B502811308C08091B602851104C0F6
:1023A0008091B702801729F0809199028260809312
:1023B00099021093B5025092B6020093B7024420DE
:1023C00051F06091B4027091B5028091B602909183
:1023D000B7020E9481110F900F900F90DF91CF9163
:1023E0001F910F91FF90EF90DF90CF90BF90AF9033
:1023F0009F908F907F906F905F904F903F90089547
:10240000823019F40091B702C3CF863019F41091CD
:10241000B502BECF8930D9F3883109F0B9CFE85180
:102420008E2F8170382EE695F0E0EC53FD4FA5908D
:10243000B490BB2488ECE82E81E0F82E9CEE892E27
:1024400091E0992ED12CC12C2CE0622E712CC6016A
:10245000B3010E94A02A812F311011C0860F97016D
:10246000402F652D0E948F07CA0CDB1C83E0E80E0D
:10247000F11C8E149F0459F70E94470F89CF861BC9
:10248000EECFE4EBF2E0438128E0421B08F440E0A9
:1024900021E0628181810C949311E4EBF2E04381AD
:1024A00028E0420F08F44FEF21E0628181810C9413
:1024B0009311E4EBF2E0628128E0621B08F460E033
:1024C00021E0438181810C949311E4EBF2E062817D
:1024D00028E0620F08F46FEF21E0438181810C94C2
:1024E0009311E4EBF2E0818121E043816281885025
:1024F0000C949311E4EBF2E0818121E0438162814D
:10250000885F0C9493118091B802882319F0815050
:102510008093B8026091B4027091B5028091B602C6
:102520009091B7020C9481118091B802833018F415
:102530008F5F8093B8026091B4027091B502809170
:10254000B6029091B7020C948111E4EBF2E083E0C3
:10255000808311828FEF828383831482A7E9B2E0A4
:1025600012968C911297836012968C936081718180
:10257000828193810C94811110926A0280911801DA
:10258000E4EAF1E0882359F08091860287FF07C0D2
:102590008EE1DF011D928A95E9F70C94520886E0DE
:1025A000F8CF1F93CF93DF93CDB7DEB7AA970FB6BF
:1025B000F894DEBF0FBECDBFECEEF2E08091F100EB
:1025C000819382E0E43FF807C9F78091ED02833000
:1025D00009F47EC008F5813009F455C0823009F451
:1025E000BFC08091E80083FFF9C08091EC02909118
:1025F000ED029A3008F0F2C0E92FF0E0EE5FFC4EF9
:102600000C94C82AC113E713EE13E713EE13451415
:102610006714EE13661573158A3009F490C08B3079
:1026200009F473C08930E9F68091EC028132C9F671
:102630008091F0029091F102009711F0029789F6D3
:102640008091E800877F8093E8008091E80082FF16
:102650003AC08091F3009091F2008927982789274A
:10266000029729F48091F1008B7F813021F48091D1
:10267000F1008093C7028091E8008B778093E80097
:102680000E94CB04AECF8091EC02813A09F0A9CF31
:102690008091E800877F8093E8008091F00290911C
:1026A000F102892B61F060E090E080E070E00E9430
:1026B0007D058091E8008B778093E80092CF60E2FF
:1026C00088EC92E0F3CF8091EA028111BECF89CFEE
:1026D0008091EC02813A09F084CF8091F0029091D0
:1026E000F102892B09F07DCF8091E800877F8093EC
:1026F000E8008091E80080FFFCCF80911801809372
:10270000F1008091E8008E77B9CF8091EC028132A0
:1027100009F067CF8091F0029091F102892B09F0C6
:1027200060CF8091E800877F8093E8000E94CB040F
:102730008091EE02809318010E94BC1252CF8091CA
:10274000EC02813209F04DCF8091E800877F8093C1
:10275000E8000E94CB048091EF028093C60241CF33
:102760008091EC02813A09F03CCF8091E800877FAC
:102770008093E8008091E80080FFFCCF8091C60242
:10278000BECF803889F0823849F58091F0028F7091
:10279000873020F58093E9008091EB0085FB882746
:1027A00080F91092E90006C08091E8029091E90258
:1027B000911182609091E800977F9093E800809358
:1027C000F1001092F1008091E8008E772DC0282F43
:1027D0002D7F21F48823D1F0823059F18091E800D7
:1027E00083FF0AC08091E800877F8093E800809192
:1027F000EB0080628093EB00AA960FB6F894DEBFE0
:102800000FBECDBFDF91CF911F9108958091EE0251
:10281000813021F7933009F080E08093E902109233
:10282000E9008091E800877F8093E8000E94CB0454
:10283000D5CF8091EE028111F2CF8091F0028F709E
:102840002FEF280F263050F68093E9002091EB00FF
:1028500020FFE5CF933031F48091EB0080628093CC
:10286000EB00DDCF9091EB0090619093EB0021E0C5
:1028700030E001C0220F8A95EAF72093EA00109217
:10288000EA008091EB008860EACF8111A7CF109118
:10289000EE021F778091E3008078812B8093E30024
:1028A0008091E800877F8093E8000E94CB048091AC
:1028B000E80080FFFCCF8091E30080688093E30014
:1028C00083E0111101C082E08093EA0287CF805833
:1028D000823008F083CF2091EE023091EF022C3D40
:1028E000A3E03A07A1F583E08A838AE289834FB7A0
:1028F000F894DE01139620E03EE051E2E32FF0E091
:1029000050935700E49120FF03C0E295EF703F5FC2
:10291000EF708E2F90E0EA30C0F0C7968D939D93B4
:102920002F5F243159F74FBF8091E800877F809354
:10293000E8006AE270E0CE0101960E947D05809178
:10294000E8008B778093E80049CFC096E7CF80916D
:10295000F0029091F102432F55274330510509F4BD
:102960004FC078F54130510509F445C08BE590E042
:10297000E9E8F7E04230510509F030CF2091E80056
:10298000277F2093E8002091F2023091F302821712
:10299000930708F49C0140E02115310509F063C05C
:1029A000411161C08091E80082FDC9CF8091EA02A7
:1029B000882329F2853019F28091E80083FFF2CF55
:1029C000BECF4132510509F43FC04232510509F0F2
:1029D00005CF8330910508F001CFFC01EE0FFF1FFA
:1029E000ED56FE4F0190F081E02D80579E4FDC01A7
:1029F0008C9190E01DC082E190E0E4EEF7E0BECF64
:102A0000332721303105C1F060F02230310509F063
:102A1000E5CEE6EFF7E0E4918E2F90E0E6EFF7E009
:102A200007C0E0E1F8E0E4918E2F90E0E0E1F8E00B
:102A3000009709F4D3CEA2CFE2E0F8E0E4918E2F24
:102A400090E0E2E0F8E0F4CF8330910508F0C6CEE4
:102A5000880F991FFC01E756FE4F0190F081E02D91
:102A600089E090E08BCF8091EA02882309F467CF58
:102A7000853009F464CF8091E80083FD60CF8091B8
:102A8000E80082FD8FCF8091E80080FF85CF8091A4
:102A9000F3009091F20089279827892721153105A5
:102AA00019F08830910550F041E0089709F040E0B6
:102AB0008091E8008E778093E8006ECF4491409338
:102AC000F1003196215031090196E8CF803809F0A4
:102AD00085CE8091E800877F8093E8008091EB02AB
:102AE0008093F10070CE811179CE1091EE021230F8
:102AF00008F074CE8091E800877F8093E8001093FF
:102B0000EB020E94CB041123C1F084E08093EA021F
:102B100042E061EC81E00E94EA0442E261EC84E080
:102B20000E94EA0442E261EC82E00E94EA0442E28E
:102B300060EC83E00E94EA0451CE8091E30087FDBF
:102B4000E4CF81E0E3CF8F929F92AF92BF92CF927A
:102B5000DF92EF92FF920F931F93CF93DF9300D0FA
:102B600000D000D0CDB7DEB70CE711E088E7C82E63
:102B700082E0D82E4601F12CAA24A394B12CD801CE
:102B80008D918D01F894E82FE295EF70F0E021A18E
:102B90008F70A50102C0440F551F8A95E2F7CA0144
:102BA000922F982B91A392A18095892382A3789448
:102BB00000C0E8E8F1E030E020E0E12C4191A42FF2
:102BC000A295AF70B0E090968C9190E04F7002C0EB
:102BD000959587954A95E2F780FD90C08A2D022E43
:102BE00001C0880F0A94EAF7E82A2F5F3F4F283088
:102BF000310521F7F801319780810E94700A50EA6F
:102C00005A95F1F7D4018D914D01E81609F478C079
:102C1000FD013197E08281E0F82AB1E002381B071C
:102C200009F0ADCF10918502FF2049F081E080933B
:102C3000C4010E940E069093C3018093C20180914B
:102C4000C4018823B9F08091C2019091C3010E9410
:102C5000F305069778F0E12FF0E0E754FD4FD60139
:102C60008D916D018193BEE7CB16B2E0DB06B9F71B
:102C70001092C4010E94FA10E82E60918502882308
:102C800009F45DC08E010F5F1F4F86E0F8011192BD
:102C90008A95E9F7862F90E0B80187549D4F0E94EE
:102CA0003C2881112FC08091C5018F5F8093C501A1
:102CB000863008F442C0E0918402F0E0E754FD4F12
:102CC00090E080E01192019686309105D9F7F110DD
:102CD00001C0FE2C8F2D26960FB6F894DEBF0FBED6
:102CE000CDBFDF91CF911F910F91FF90EF90DF90BB
:102CF000CF90BF90AF909F908F90089580E074CF59
:102D000080E08ACF1092C501A0918402B0E0A75460
:102D1000BD4F9E01295F3F4FE12C4D91F8019191EC
:102D20008F01491731F0AD0141505109FA019083EB
:102D3000E82E0217130789F7CACFE12CC8CF70E03D
:102D400067547D4F8091840290E087549D4F0E948C
:102D50006728BDCF1F920F920FB60F9211242F93A9
:102D60003F934F935F936F937F938F939F93AF9313
:102D7000BF93CF93EF93FF93C091E900CF70809101
:102D8000EC001092E9008091F000877F8093F000C2
:102D900078940E94D1121092E9008091F00088602E
:102DA0008093F000C093E900FF91EF91CF91BF9124
:102DB000AF919F918F917F916F915F914F913F91D3
:102DC0002F910F900FBE0F901F9018951F920F928A
:102DD0000FB60F9211242F933F934F935F936F93EE
:102DE0007F938F939F93AF93BF93EF93FF938091C4
:102DF000E10082FF09C08091E20082FF05C080915E
:102E0000E1008B7F8093E1008091DA0080FF24C095
:102E10008091D80080FF20C08091DA008E7F80935F
:102E2000DA008091D90080FF99C080E189BD82E1FC
:102E300089BD09B400FEFDCF81E08093EA02809154
:102E4000C502811109C00E9453040E941C05809193
:102E5000E20084608093E2008091E10080FF17C06F
:102E60008091E20080FF13C08091E2008E7F80930A
:102E7000E2008091E20080618093E2008091D800BE
:102E800080628093D80019BC85E08093EA0280912B
:102E9000E10084FF27C08091E20084FF23C080E12D
:102EA00089BD82E189BD09B400FEFDCF8091D800C3
:102EB0008F7D8093D8008091E1008F7E8093E10028
:102EC0008091E2008F7E8093E2008091E200816039
:102ED0008093E2008091EB02882309F445C084E0EE
:102EE0008093EA028091E10083FF27C08091E20095
:102EF00083FF23C08091E100877F8093E10082E01F
:102F00008093EA021092EB028091E1008E7F809321
:102F1000E1008091E2008E7F8093E2008091E200E8
:102F200080618093E20042E060E080E00E94EA0479
:102F30008091F00088608093F000FF91EF91BF9145
:102F4000AF919F918F917F916F915F914F913F9141
:102F50002F910F900FBE0F901F90189519BC1092D3
:102F6000EA021092C50278CF8091E30087FD02C08B
:102F700081E0B6CF83E0B4CF0F931F930E94FA1085
:102F8000882321F01F910F910C9402060E940206E3
:102F900000917402109175022091760230917702AF
:102FA000600F711F821F931F1F910F9108950E9440
:102FB000FA1081110C940E060E94BC17CB010895E3
:102FC0006091B402669570E04BE050E080E091E0E3
:102FD0000E94E12A892B19F481E0809398020E94D3
:102FE000D717909392028093910280919902846006
:102FF0008093990208959091B40290FF3BC0917024
:1030000081112EC092609093B402809199028160E8
:1030100080939902662351F06091B4027091B502D9
:103020008091B6029091B7020E9481116091B40222
:10303000669570E04BE050E080E091E00E94E12A6C
:10304000892BA9F00E94790781E08093940220E007
:103050004091B7026091B6028091B5020C94931131
:10306000823210F09264CFCF880F982BCCCF0E9481
:10307000E017EACF08958091B4028695815009F453
:1030800081E261E00C94FB178091B40286958F5F1A
:10309000823208F081E061E00C94FB179091B40259
:1030A00090FF07C09695981720F0961710F40C948F
:1030B000441861E00C94FB173F924F925F926F921D
:1030C0007F928F929F92AF92BF92CF92DF92EF92B8
:1030D000FF920F931F93CF93DF93CDB7DEB729975E
:1030E0000FB6F894DEBF0FBECDBFFC018081918189
:1030F00023813481232B39F09F3F19F491E08F3FD6
:1031000019F090E001C091E0292F2170D22E90FD9E
:1031100085C68F0185E0DE01119601900D928A959A
:10312000E1F7F801228189819A81222309F44AC0BA
:103130000E949A0CF82E682F89819A810E94EE06CF
:1031400069817A818F2D0E94FE0A7C01F8019281AB
:10315000992309F4C3C5970122513F452031310518
:1031600008F0E9C58FEF93E00E944A2AFEEEEF0EC9
:1031700056E2852E53E0952E8823A9F180916702AF
:10318000877009F44BC6F8018281882309F446C68A
:1031900082E029960FB6F894DEBF0FBECDBFDF9157
:1031A000CF911F910F91FF90EF90DF90CF90BF9044
:1031B000AF909F908F907F906F905F904F903F90D7
:1031C0000C94B8080E94C306F82EBACF811424E0EC
:1031D0009206A1F2C4010E944A2A811101C0EA9418
:1031E0003FEF831A930AE110F1CF19861886442421
:1031F00043944AE0342E74018FEFE81AF80AC401B0
:103200000E944A2A8E831F82882309F4B7CF9FEF3A
:10321000980F933008F58F834E8292E0890E911CAF
:10322000C7010E944A2A8887882309F4A7CF7E0114
:10323000E6E0EE0EF11CF70120812223E1F22130BD
:1032400009F049C091818281913041F4F2E0EF0EA2
:10325000F11C0E94BF0E09C04701E9CF923049F42A
:1032600022E0E20EF11C0E94090E3FEFE31AF30A7E
:10327000E2CF933031F432E0E30EF11C0E94770983
:10328000F4CF943021F08FEFE81AF80AEECF92E0F5
:10329000E90EF11C30E020E0B7016F5F7F4FF701CE
:1032A00041818053990B8A30910550F021503109AA
:1032B000E0F28FE99FE00197F1F700C00000F6CF40
:1032C000329EF001339EF00D11249C012E0F3F1F02
:1032D000842F7B01E1CFE22FF0E0E750F94F5490CB
:1032E000822F86958695869590E0FC01E751F94FEF
:1032F00064902770712C022E02C0759467940A9412
:10330000E2F7E1E06E227724FC01E752F94FA49046
:10331000B12C022E02C0B594A7940A94E2F7F1E012
:10332000AF22BB24FC01E753F94FC490D12C02C05B
:10333000D594C7942A95E2F721E0C222DD246114D6
:10334000710419F081EE0E94090EA114B10419F064
:1033500086EE0E94090E852D0E94BF0EAB2819F043
:1033600086EE0E947709672819F081EE0E9477099E
:10337000CD2809F47ACF8CE26CCF81E00E94D0088E
:1033800003C081E00E9495080E947908F7CE82E090
:10339000F9CF86EFE8168CE5F80609F46AC008F460
:1033A00064C027E245EE66EEF7EFEF16FCE5FF0698
:1033B00009F4BDC4992309F4CBC41092F60222E0AB
:1033C000E2162CE5F20608F44DC136E1E3163CE5C1
:1033D000F30638F097012B5F3C452930310508F0A2
:1033E00041C10E94CA0A909387028093860280E1BD
:1033F000E8168CE5F80609F402C108F082C0E8E09E
:10340000EE16ECE5FE0609F4ECC008F04FC024E02F
:10341000E2162CE5F20609F4DAC090F582E0E8162F
:103420008CE5F80609F4CDC080918602826093E0B5
:10343000E9169CE5F90609F4C7C060918602F09090
:10344000870284E090E00E945E2A6F2D81E290E086
:103450000E945E2A0E94BC1291CE27E245EE65EEE4
:1034600066C426E241EE60EE62C427E245EE64EEF9
:103470005EC426E241EE62EE5AC428E241E0EFCF9C
:10348000809186028061E6E0EE16ECE5FE0609F426
:103490009BC0809186028860F7E0EF16FCE5FF068E
:1034A00008F492C08091860280628EC0809186026C
:1034B0008D7F2CE0E2162CE5F20609F485C060F45D
:1034C0008AE0E8168CE5F80609F495C008F48DC08A
:1034D000809186028E7F78C080918602877FEEE0A1
:1034E000EE16ECE5FE0609F46FC080918602FFE05F
:1034F000EF16FCE5FF0608F48DC0809186028F7EF2
:1035000063C02CEFE2162CE5F20609F464C058F50E
:1035100083E1E8168CE5F80609F479C090F4E1E15E
:10352000EE16ECE5FE0609F46EC0F2E1EF16FCE5DE
:10353000FF0609F082CF0E94BC12809186028F772D
:1035400043C025E1E2162CE5F20609F46AC008F44E
:103550007EC08BEFE8168CE5F80609F06ECF8091FF
:10356000870281603BC0E1149DE5F90609F454C06F
:10357000A0F4809187028D7FFEEFEF16FCE5FF0639
:1035800069F1809187022FEFE2162CE5F20608F42C
:1035900046C0809187028260E4CF32E0E3163DE5C9
:1035A000F30609F45DC008F448C060E093E0E91652
:1035B0009DE5F90609F041CF8EE090E00E945E2A79
:1035C0003CCF8091860281608093860236CF8091C5
:1035D00086028460F9CF809187028260809387029F
:1035E0002CCF809186028064EFCF0E94BC12809124
:1035F00086028068E9CF809186028860EACF809158
:1036000086028F7DE1CF809186028F7BDDCF809116
:103610008602877F8B7FD8CF809187028D7F8E7FB8
:10362000DDCF8091860282FB992790F921E09227D5
:1036300090FB82F990FB83F9C7CF80918702982F86
:10364000909591708E7F892B90FB81F9C7CF0E9456
:10365000BC1290918602892F97FB87F98058B4CFCE
:1036600061E0AACFE6E1EE16ECE5FE0609F07FC3C5
:1036700080916A028A7A91E009F490E09093F101D6
:10368000882331F085E30E948F060E94200676CDC4
:1036900089E2F9CF89E268C380916A028272F701F8
:1036A000E35CFC45E431F10508F06CC3E65AF44EE6
:1036B0000C94C82A6E1B9A1BA11BA61BAB1BB01B2C
:1036C000B51BBA1BBF1BC41BC91BCE1BD11BD61BF2
:1036D000D91BDC1BDF1BBE18E21BBE188091B40295
:1036E00080FF20C08E7F8093B4026091B4027091FD
:1036F000B5028091B6029091B7020E9481110E949A
:10370000790780919902816080939902FFEF20E709
:1037100032E0F15020403040E1F700C000000E944C
:10372000470F2CCD81608093B40261E086950E94A2
:10373000FB1724CD4BE358E164E478E10E94740761
:103740001DCD44E458E16BE378E1F8CF41E752E165
:103750006AE772E1F3CF4AE752E161E772E1EECF47
:1037600049E552E165E672E1E9CF45E652E169E5F6
:1037700072E1E4CF41E452E16DE472E1DFCF4DE468
:1037800052E161E472E1DACF43E852E164E972E1C7
:10379000D5CF44E952E163E872E1D0CF61E081E046
:1037A000C6CF65E082E00E944E18E8CC68E086E073
:1037B000FACF6EE089E0F7CF64E18FE0F4CF67E104
:1037C00085E1F1CF61E288E1EECF0E94BC128FEF7C
:1037D00094E3ECE081509040E040E1F700C000004D
:1037E0000E94E2050E941711C9CCC7010E94C306BE
:1037F000C82ED6C22F2D2F70C22E8F2D807F19F08C
:10380000C29490EFC9228E2DBB20C9F0CC2069F064
:1038100090E29E0D983010F0E1100BC080916A028A
:10382000C82AC0926A020E9420068E2D0E94090EAC
:1038300018C080916902C82AC0926902F4CF0E9420
:103840007709CC2071F0C09480E28E0D883010F0A2
:10385000911036C080916A02C822C0926A020E940A
:103860002006DD2009F4DAC28091670280FDD6C20D
:10387000F80112828595859585950E94D008C8012A
:103880000E945C188091670285958595859529969B
:103890000FB6F894DEBF0FBECDBFDF91CF911F9161
:1038A0000F91FF90EF90DF90CF90BF90AF909F90DF
:1038B0008F907F906F905F904F903F900C94950801
:1038C00080916902C822C0926902C9CF3F2D3F7022
:1038D000C32E8F2D807F803219F0C29480EFC822D2
:1038E0008E2D992071F091E0991661F1BB20B9F10C
:1038F000AA2071F1F801858180FF97CF8F708583B1
:1039000027C0BB2091F090916B02892F8C29A110C8
:1039100003C00E943207A5CFE1E0AE12FACF98179C
:1039200009F49FCF80936B029CCFA11006C00E9428
:103930001A068C2D0E94270794CFF1E0AF1609F4E8
:1039400090CFF5CFBB2031F025E02A1508F489CFC0
:103950008C2DDFCF34E03A1508F483CFEACFAA20CC
:1039600041F3893349F4FFEF27EE33E0F150204073
:103970003040E1F700C000008E2D0E94770971CF22
:103980008F2D86958695837041F0813079F088EF90
:103990008C0D843008F469C064CFC7019370B110F6
:1039A00002C090E080E00E9452075BCFC701937095
:1039B000B11002C090E080E00E943C0752CF8E2DF3
:1039C000BB2029F00E94160A0E9428084ACF0E94B4
:1039D000FB08FACF8F2D837009F068C0B11045C085
:1039E0008E2D829586958770880F880F6E2D6F704B
:1039F000862E912CB12CA12C082E04C0880C991C69
:103A0000AA1CBB1C0A94D2F740E050E0BA01E4FEC5
:103A10000FC04FE050E060E070E004C0440F551F5D
:103A2000661F771F8A95D2F74095509560957095DF
:103A30008F2D869586958370823029F1E8F4409029
:103A40006C0250906D0260906E0270906F02813037
:103A500079F0482959296A297B29CB01BA016421C7
:103A60007521862197210E94F1080E946807F9CEEE
:103A700084289528A628B728CB01BA016829792976
:103A80008A299B29F0CF482959296A297B298090C6
:103A90006C0290906D02A0906E02B0906F02CB010C
:103AA000BA01682579258A259B25DDCF8695BB201F
:103AB00011F08F2D81708823C1F28E2D829586950D
:103AC0008770880F880F6E2D6F70862E912CB12C09
:103AD000A12C082E04C0880C991CAA1CBB1C0A949B
:103AE000D2F740E050E0BA01E4FE0FC04FE050E0F2
:103AF00060E070E004C0440F551F661F771F8A9571
:103B0000D2F740955095609570958F2D8695869546
:103B10008370823019F1D8F44090F7025090F80287
:103B20006090F9027090FA02813069F048295929B1
:103B30006A297B29CB01BA0164217521862197214D
:103B40000E946F0892CF84289528A628B728CB0119
:103B5000BA01682979298A299B29F2CF482959294C
:103B60006A297B298090F7029090F802A090F902D0
:103B7000B090FA02CB01BA01682579258A259B25E8
:103B8000DFCF8F2D8F70F82EBB2031F00E94D00830
:103B90008E2D0E94320769CF8E2D0E9427078F2D10
:103BA0000E94950862CF8E2D92EF991609F45AC0A3
:103BB000991588F0E0EF9E1639F1F1EF9F1609F4A0
:103BC0004AC0BB2009F476C0AA2009F470C08E2D2B
:103BD0000E94090EDCCE23EF921609F44AC034EF9E
:103BE0009312EFCFBB2009F457C0EF2DEF71FE2EDB
:103BF0008E2F0E94D008F8E0FF9EC0011124836040
:103C0000809367028F2D2BC0BB2001F184E08A15C1
:103C100008F4BDCE2F2D2F7161E070E080E090E0C0
:103C200004C0660F771F881F991F2A95D2F78090CE
:103C3000F7029090F802A090F902B090FA0268257D
:103C400079258A259B250E946F08A1CE95E09A15BB
:103C500008F49DCEDFCF8F2D8F71BB2039F00E94ED
:103C6000D00895CE8F2D8F71BB20C9F30E94950887
:103C70008ECE60E070E0CB01BB2029F32F2D2F7199
:103C800061E070E080E090E004C0660F771F881F5D
:103C9000991F2A95D2F7D7CF81E00E94B80821E07A
:103CA0002A1508F074CE82E00E94B80870CE8F2DDD
:103CB0008F71D5CFAA2079F0893349F43FEF87EE91
:103CC00093E0315080409040E1F700C000008E2D1D
:103CD0000E9477095CCE8F2D8F71C8CFF0E1EF166F
:103CE000FFE5FF0609F44DCB21E1E2162FE5F206D0
:103CF00009F44DCB84EFE8168CE5F80609F4B1CB56
:103D000008F047CBF9EDEF16FCE5FF0609F4A5CB6B
:103D10002AEDE2162CE5F20609F4AFCB38EDE316F6
:103D20003CE5F30609F046CB26E241EE61EEC80120
:103D30000E94DC0E23CA30E1E3163FE5F30609F4E6
:103D40001CCB81E1E8168FE5F806A1F682E016CBE0
:103D5000E6E1EE16ECE5FE0609F09ECC8091F1015D
:103D6000882309F497CC85E30E9465068ECCE11484
:103D7000FCE5FF0609F429CD2FEDE2162CE5F2064D
:103D800009F430CDF801E080F180992309F42DCDBC
:103D9000C7010E949A0CC82E682FC7010E94EE0628
:103DA000B7018C2D0E940B0B7C01982EF801B2807C
:103DB000A580A2943FE0A322809167028770A1F0C2
:103DC000BB2089F08F2D807F803421F080E28E0D22
:103DD000883050F082E00E94B808809167028770B6
:103DE000DD24D3948111D12CCF2CC2942FE0C22298
:103DF000FBE0FC1508F435CDEC2DF0E0EE5FF04E65
:103E00000C94C82AFA1BFA1B661C661CC01CDF1C1B
:103E1000311C311CEA1CC11DD31DD31D29960FB6C0
:103E2000F894DEBF0FBECDBFDF91CF911F910F91F0
:103E3000FF90EF90DF90CF90BF90AF909F908F90CA
:103E40007F906F905F904F903F9008950F931F93D6
:103E5000CF93DF938091F801807FB9F48091F501D1
:103E6000882399F080912A021091F9016091F30161
:103E70007091F401C091F601D091F70121E06F3FFC
:103E800009F020E006E0181305C0DF91CF911F91E3
:103E90000F91089531E0209721F0322F7F3F09F0F4
:103EA00030E090E030FD33C0089FF001099FF00D35
:103EB0001124DF01A650BE4F11963C911197371384
:103EC00026C03C91361323C012963C9112973111B3
:103ED0001EC013964D915C914C1B5D0B483C5105E7
:103EE000B0F48091F8018F7080618093F801E15007
:103EF000FE4F80818F708061808383EF91E00E940C
:103F00005C18DF91CF911F910F910C941D070196C2
:103F10008770B9CF9F92AF92BF92CF92DF92EF920C
:103F2000FF920F931F93CF93DF93CDB7DEB76197C7
:103F30000FB6F894DEBF0FBECDBF8C0185E0F8014F
:103F4000DE011D9601900D928A95E1F7F8019081AE
:103F50008181E2803091F3016091F4014091F6019A
:103F60005091F70121E04115510531F06F3F19F4EF
:103F700021E03F3F09F020E0F22FF1709F2E20FD5D
:103F800042C1F801C380D48023EFA22E21E0B22EDB
:103F9000F090F501F601E41BF50BFF2009F403C1D5
:103FA0002091F801722F707FE83CF10508F0C3C042
:103FB000711180C0FE2C681322C0391320C0E1109B
:103FC0001EC02F7020612093F801C5010E945C186B
:103FD0008091F801F80185838F2D61960FB6F894D2
:103FE000DEBF0FBECDBFDF91CF911F910F91FF902C
:103FF000EF90DF90CF90BF90AF909F90089521E019
:10400000CD2831F08F3F19F421E09F3F09F020E0E7
:1040100020FD23C021E02E25F22FF170DF2E20FF9E
:104020003FC020912A024091F90156E0241317C0A5
:104030009D878E878D859E850E94DC0C292F229579
:104040002F70223008F1243030F59F7009F1F8010B
:104050009581907FE9F4F92CBFCF20E0DDCF30E0EF
:10406000529FF001539FF00D1124E650FE4F6181E5
:10407000861306C06081961303C06281E61210C0E9
:104080002F5F3F4F2770D2CF9F7011F0882319F315
:10409000805E883000F3C8010E945C189D2CDBCF45
:1040A000EE2009F499CF8091F80181608093F801A6
:1040B000F12C92CF681312C0391310C0E1100EC05A
:1040C000F8012583C8010E945C1886E0F801A3EF7F
:1040D000B1E001900D928A95E1F77ECF9D878E87A2
:1040E0008D859E850E94E60C882309F1EE20F9F06B
:1040F0008091F801803270F02091F3013091F40149
:1041000038872F831986DB86CA868C87CE0107966F
:104110000E945C1886E0F801A3EFB1E001900D92D7
:104120008A95E1F70E94261FFF24F39455CFC8011A
:104130000E945C18F9CF71110AC083EF91E00E94D0
:104140005C1886E0F50111928A95E9F7B1CF681302
:104150000FC039130DC0E1100BC0F8012583C80151
:104160000E945C1886E0F50111928A95E9F734CF38
:104170009D878E878D859E850E94E60C8823B9F2E7
:10418000EE20A9F28091F801803220F22091F30113
:104190003091F4013A8329831B82DD82CC828E83A5
:1041A000CE010196B5CFE83CF105E0F6FE2CEE20FD
:1041B00009F4BDCF681316C0391314C08091F801FB
:1041C00080FD83CF982F907F09F47FCFF8018583FE
:1041D000903F09F477CF982F907F905F8F70892B55
:1041E000858370CF9D878E878D859E850E94E60C86
:1041F000811190CF8091F80181608093F801C8010E
:104200000E945C18E9CEEE2009F491CF9D878E873D
:104210008D859E850E94E60CF82E882309F487CFB1
:1042200086E0F801A3EFB1E001900D928A95E1F7E5
:104230008091F3019091F4010E94DC0C0E94261FF2
:10424000CBCE1F93CF93DF93CDB7DEB767970FB673
:10425000F894DEBF0FBECDBF342F4B8B252F5C8B68
:104260006D8B7E8B8F8B8E899F8961111092690275
:104270001A8A198A3D872E876F87998B888B86E0EB
:10428000FE013D96DE01179601900D928A95E1F7A9
:10429000CE0107960E948A1F811137C086E0FE0179
:1042A0003796DE01119601900D928A95E1F79F8174
:1042B00088852A853B85232B39F08F3F19F481E0CF
:1042C0009F3F19F080E001C081E080FD1EC0209179
:1042D000F90130E0C90101968770992740912A02BF
:1042E0004817190659F196E0929FD001939FB00D9F
:1042F0001124A650BE4FFE01319601900D929A9561
:10430000E1F78093F9010E941D0716E080912A02CF
:104310009091F9018917F9F0819FC001112486500D
:104320009E4F0E948A1F8823B1F080912A0290E05C
:1043300001968770992780932A02E8CF0E94BC12C9
:104340001092F90110922A0286E0E3EFF1E0DF011A
:104350001D928A95E9F767960FB6F894DEBF0FBEF7
:10436000CDBFDF91CF911F910895CF93DF93CDB74C
:10437000DEB7AA970FB6F894DEBF0FBECDBF84B7E5
:10438000877F84BF0FB6F894A895809160008861FC
:1043900080936000109260000FBE80E890E00FB63E
:1043A000F89480936100909361000FBE85B7806898
:1043B00085BF85B7806885BF8DED95E09093A1019D
:1043C0008093A0010E9453040E941C058091E2008A
:1043D00084608093E20078948091EA02882399F0C7
:1043E0001091E9001F708091EC0080FF83C080E88D
:1043F000182B1092E9008091E80083FD0E94D112F1
:104400001F701093E90082E084BD93E095BD9AEFA0
:1044100097BD80936E0010927402109275021092F4
:104420007602109277020E94FA1080930D010E948A
:10443000FA1081110E94132880910D0180910D01C5
:1044400090E0811101C096E09093850286E0891B7F
:104450008093840284E90E94700A86E60E94700AB2
:1044600087E90E94700A86EC0E94700A84E30E9429
:10447000700A85E30E94700A08E811E080E9E82EDE
:1044800081E0F82EF80181918F010E94700AE016F8
:10449000F106C1F7E8E7F2E084E892E0A9EBB2E0C8
:1044A00011921D928E179F07D9F70E94A3158FE3D3
:1044B0009CE90197F1F700C000000E94A3158091CC
:1044C000B90280FF19C06FEF82E290E00E945E2A7D
:1044D0006FEF83E290E00E945E2A6FEF84E290E04B
:1044E0000E945E2A6FEF7FEF90E080E00E947C2ABE
:1044F0000E94E20580E07CCF90E080E00E94582A94
:104500008B3E9E4F11F00E9417110E94FA108111EC
:1045100002C00E94192882E290E00E944A2A863254
:1045200009F057C283E290E00E944A2A893009F0DC
:1045300050C284E290E00E944A2A91E0863209F05B
:1045400090E0892F80FD18C060E085E290E00E9435
:104550005E2A0E94180D0E94600D66E282E290E0E1
:104560000E945E2A69E083E290E00E945E2A66E291
:1045700084E290E00E945E2A90E080E00E94582A47
:104580008B3E9E4F11F00E94171182E090E00E9436
:104590004A2A8093A7020E94CA0A909387028093B6
:1045A000860283E090E00E944A2A682F70E090E043
:1045B00080E00E94F1088091880281113BC090E068
:1045C00080E00E94582A8B3E9E4F21F00E941711D6
:1045D0000E94A51288E090E00E94522A6093B402E3
:1045E0007093B5028093B6029093B70280919902BE
:1045F0008360809399026E7F71F40E94A51288E017
:1046000090E00E94522A6093B4027093B5028093A6
:10461000B6029093B7020E9480070E9479078091AA
:10462000B40280FF04C060E086950E94FB1781E021
:10463000809388028EE091E090938A0280938902B1
:10464000A8E16A2E712CB0E45B2E15ECC12E12E0AD
:10465000D12ECE0101967C018091EA02BB24B39455
:1046600000E112E1853009F4F9C10E94A31581111E
:104670000E940206A8EAB2E0E9EBF2E010E000E0F6
:10468000802EA1908D918A1509F408C2912CBB242B
:10469000B3948A25982F9B2109F4FBC10E94FA103C
:1046A000882399F099A28AA2AB2081E009F480E0E6
:1046B0008BA30E940E068160782F9DA38CA349A135
:1046C0005AA16BA18DA10E942121F801E855FD4F4F
:1046D0008081B826B08280919802882309F464C052
:1046E00080919702E091B402E695E81BE093930273
:1046F000823009F0EAC1F0E0EB57F84FE4910E2F59
:1047000010E0FFEBAF2EF0E1BF2E809194028823E2
:1047100061F0109294020E94D717909392028093B6
:10472000910210929602109295020E94D717E09182
:104730009102F09192029C012E1B3F0B2F3F3F47AD
:1047400098F5209190022223B1F0109290022091CE
:104750008E0230918F02821B930B8F3F9F4758F43C
:10476000205D3A4830938F0220938E028091990207
:104770008860809399028090950290909602E00F55
:10478000F11FF0939202E093910281E992E0F5012A
:1047900009958091950290919602892B29F4892898
:1047A00019F081E08093900286E0E0EAF2E0D70120
:1047B00001900D928A95E1F7B090A202A090A30219
:1047C0001091A4020091A5021092A2021092A302DD
:1047D0001092A4021092A502B11003C0AA2009F4FD
:1047E00048C080919E0290919F020E94F3059C0117
:1047F00090919D02992309F453C323333105C8F1E5
:104800009F3F19F09F5F90939D02BB2059F00E943B
:10481000F60991E01B140CF09FEF899F802D112465
:104820008093A202AA2059F00E94F60991E01A147E
:104830000CF09FEF899F802D11248093A30230916B
:10484000A2023323B1F02091A302222391F045EB81
:104850003403C0011124992309F474C19093A20276
:1048600045EB240390011124332309F46FC13093E5
:10487000A302111103C0002309F448C080919B02D8
:1048800090919C020E94F3059C0190919A029923B9
:1048900009F40BC325363105C8F19F3F19F09F5F1E
:1048A00090939A02112359F00E94D40991E01116B5
:1048B0000CF09FEF899F802D11248093A402002388
:1048C00059F00E94D40991E010160CF09FEF899FD7
:1048D000802D11248093A5023091A4023323B1F0DE
:1048E0002091A502222391F045EB3403C00111244D
:1048F000992309F42FC19093A40245EB240390015E
:104900001124332309F42AC13093A5028091A20215
:1049100081110BC08091A302811107C08091A40274
:10492000811103C08091A50281110E94280886E0B0
:10493000F701A0EAB2E001900D928A95E1F70E949A
:1049400068079091A602891721F00E94680780935A
:10495000A6028091EA02843009F07ECE83E0809343
:10496000E9008091E80082FF77CE8091E80090E036
:1049700085FF0AC00E94720430E2A32EB12C870189
:10498000882309F4F9C091E08091E8008B77809347
:10499000E800992309F460CEE981E150E33108F0A1
:1049A0003AC1F0E0EA52FB4D0C94C82ACA25CE2544
:1049B0000E261C2624264326462679269A260B26D2
:1049C0000B26A526A826AB26CD26EB26EE26F0261E
:1049D000122780E0B7CD8091EA02843009F430C01C
:1049E0000E94790780918D02811109C0B0928D02D9
:1049F0008091B402817080938C020E94E310109227
:104A00008B020FB6F894A895609260000FBE50928A
:104A1000600083B7817F846083BF83B7816083BF79
:104A20007894889583B78E7F83BF0FB6F894A89546
:104A300080916000886180936000109260000FBEDA
:104A40008091E902882351F00E94A315E9EBF2E07E
:104A50008191811107C2CE16DF06D1F78091EA025B
:104A6000853009F4B8CF0E94BC120E9468071092EA
:104A70008D0280918C02882349F08091B40281607C
:104A80008093B40260E086950E94FB170E94E017B5
:104A9000ECCD9394BB0C98E09912FCCD0F5F1F4FA7
:104AA0000C30110509F0ECCD8FEF8EA38FA318A663
:104AB0000E940E068160782F9AA789A74EA15FA158
:104AC00068A58AA50E94212106CE863059F4F0E01F
:104AD000EE57F84FE4910E2F10E0E3EDAE2EE0E13B
:104AE000BE2E13CE893061F4E695F0E0E158F84F20
:104AF000E4910E2F10E07FEDA72E7FE0B72E05CEBC
:104B00008F3061F4E695F0E0E458F84FE4910E2F11
:104B100010E069E0A62E60E1B62EF7CD00ED17E0BB
:104B20004CEDA42E45E0B42E853109F0EECDF0E039
:104B3000E758F84FE4910E2F10E05BE7A52E5FE0F9
:104B4000B52EE3CD81E08093A2028ACE81E08093EE
:104B5000A3028FCE81E08093A402CFCE81E0809328
:104B6000A502D4CE8091F100F80181938F01F1E08C
:104B7000AF1AB10809F407CF8091E80085FDF2CFA4
:104B80008091E8008B778093E8000E94720488236C
:104B900099F3F9CE1A8289E08B830EC08A81823024
:104BA00009F476C1833069F18130A9F50E940206CB
:104BB0009B838C837D836E838091EA02843009F02D
:104BC0004BCD1091E9001F708091EC0080FF48C12F
:104BD00080E8182B82E08093E9008091E80080FF54
:104BE0000CC050E040E060E270E0C7010E94A10408
:104BF0008091E8008E778093E8001F701093E900A1
:104C00002BCDDE011396E9EBF2E081918D93CE1668
:104C1000DF06D9F7D1CF8FEF8983CECF8A8182305B
:104C2000D1F76B817C818D819E810E94CE2A85E2A5
:104C300090E00E945E2AC0CF4C816B818A810E94E5
:104C4000D80A9D838E83B8CF0D811E81102701273E
:104C500010278A81AB8020E1A29E5001112440ECF4
:104C6000849FA00CB11C11248C8190E0880F991FA7
:104C7000A80EB91E612FC50186960E945E2A602F7C
:104C8000C5018796D6CF0E94180D96CF8A818138AC
:104C9000C1F060F4803809F08FCF20E04B81609143
:104CA000B6028091B5020E94931186CF8238E9F056
:104CB000833809F081CF20E04091B7026C818B816D
:104CC000F2CF60E08B810E94FB178B81811103C0C2
:104CD0000E94E31071CF8091B40281608093B4028E
:104CE00060E086950E94FB1767CF8B818093B802A6
:104CF00063CF8A81813899F030F4803809F05CCF35
:104D00008091B70249CF823891F0833809F054CFAF
:104D10008091B5028B838091B6028C834DCF8091B8
:104D2000B40280FF02C0869537CF80E035CF8091F6
:104D3000B80232CF6091B4027091B5028091B60290
:104D40009091B7020E94811137CF80E18A8334CFDE
:104D50001A828AED21CF0A811B8110270127102793
:104D60008C80912C5701C8018A5D9C4F95012E19AA
:104D70003F092815390508F01FCF0A3D110550F4E9
:104D80000E944A2AF50184830F5F1F4FFFEFAF1A7D
:104D9000BF0AE9CFF5011482F7CFAA80BB80BA24FD
:104DA000AB24BA248C80912C8501C8018A5D9C4F6C
:104DB00098012A193B092815390508F0FDCE0A3D4E
:104DC000110530F42E0D3F1DF90164810E945E2A09
:104DD0000F5F1F4FEACF0E94600DEECE84E0B6CF8A
:104DE0000A811B811027012710278C80912C5701E5
:104DF000C801869695012E193F092815390508F036
:104E0000DBCE0115F3E01F0750F40E944A2AF5019A
:104E100084830F5F1F4FFFEFAF1ABF0AE9CFF50181
:104E20001482F7CFAA80BB80BA24AB24BA248C802A
:104E3000912C8501C801869698012A193B092815ED
:104E4000390508F0B9CE011543E0140730F42E0DF2
:104E50003F1DF90164810E945E2A0F5F1F4FEACF58
:104E600080E0B7CE09BD19BD09B400FEFDCF809129
:104E7000D8008F7D8093D8008091E000826080937D
:104E8000E0008091E00081FDFCCF0E94BC12E6CDE5
:104E900085E290E00E944A2A1B821C821D82D2CEAB
:104EA0002D32314008F0AECCE4CC2D32314008F048
:104EB000F6CC2CCDCF92DF92EF92FF926B017C016A
:104EC0000E94FA1081110EC00E940206C61AD70A6B
:104ED000E80AF90AC0927402D0927502E092760252
:104EE000F0927702FF90EF90DF90CF900895789442
:104EF0001F920F920FB60F9211248F939F93AF932F
:104F0000BF938091700290917102A0917202B09152
:104F100073020196A11DB11D8093700290937102DE
:104F2000A0937202B0937302BF91AF919F918F9142
:104F30000F900FBE0F901F9018951F920F920FB6F3
:104F40000F9211248F939F93AF93BF9380918B0205
:104F5000811113C08091700290917102A091720230
:104F6000B09173024196A11DB11D80937002909380
:104F70007102A0937202B0937302BF91AF919F919F
:104F80008F910F900FBE0F901F9018951F93CF9386
:104F9000DF93EC01162F8F8180FF0BC0888180FF8B
:104FA00023C09091B40291609093B40286950E94C0
:104FB000FB178F8181FF06C0212F4B816A81898178
:104FC0000E9493118F8182FF05C08E81882379F022
:104FD0000E94E0178F8183FF03C081E080939402D9
:104FE000DF91CF911F9108950E94E310E2CF0E94BC
:104FF0007907F0CF25E0E4EBF2E0DC0101900D92BF
:105000002A95E1F7209197023091980240919902F8
:10501000FC012583368347830895109299020895F1
:1050200080919902089562E070E089E191E00C942A
:10503000EA2862E070E089E191E00C94F3280E9494
:105040001028882361F087E093E00E94FA2781E02E
:1050500090E00E94CC29892B11F40C940D2808951E
:1050600080910603883039F460E087E093E00E9485
:10507000C627109206030895CF93DF93D62FC72F2C
:105080000E941F2890E080E00E94CC290097E9F45C
:10509000ED2FFC2FDC01A050BD4F2C9121930196E8
:1050A00086309105B9F70E94BC176E5F7F4F8F4F16
:1050B0009F4F6093FC027093FD028093FE029093D9
:1050C000FF0281E0DF91CF91089580E0FBCFCF9385
:1050D000DF93D62FC72F0E9430286091FC02709179
:1050E000FD028091FE029091FF020E945A27ED2F4F
:1050F000FC2F90E080E02191DC01A050BD4F2C936B
:10510000019686309105B9F7DF91CF9108958EE130
:105110004A9B02C08150E1F74A9BFECF08955A98FE
:1051200080E28A95F1F75A9A0895FC013BE03A959E
:10513000F1F720E090E080E031E040E14A95F1F7BE
:10514000880F4A9B02C08160232742E04A95F1F70D
:10515000000040E14A95F1F79F5F6913EECF90E1BF
:105160009A95F1F799B132E03A95F1F7000040E1F4
:105170004A95F1F792FB992790F992272081920F97
:1051800090830895EF92FF920F931F93CF93DF9335
:105190001F92CDB7DEB719828C017C01E60EF11C9F
:1051A0000E151F0561F481E09981911180E00F9047
:1051B000DF91CF911F910F91FF90EF9008950E9482
:1051C000872868E0CE0101960E949528F801819316
:1051D0008F01E6CF909311038093100360930F0328
:1051E000529A5A9A089590931103809310036093F2
:1051F0000F0352985A9AEA9AE9E6F0E080818F7C90
:10520000808308956150770B91E001C0990F6A95F2
:10521000EAF720E031E0911108C0222391F05A9A78
:1052200080E28A95F1F75A980895492F482339F07A
:105230005A9A232740E24A95F1F79695ECCF5A986F
:10524000F9CF5A98EDCFFF920F931F93CF93DF932F
:10525000EC018C01060F111DC017D10731F4DF914D
:10526000CF911F910F91FF900895F9900E948F2880
:1052700068E08F2D0E940229EFCF1F920F920FB688
:105280000F9211240F931F932F933F934F935F938C
:105290006F937F938F939F93AF93BF93EF93FF93FE
:1052A000CF93DF931F92CDB7DEB719820E94872874
:1052B00067E0CE0101960E949528082F0695069575
:1052C0000695982F92959570202F2570920F292F73
:1052D0002370969596958770920F891344C08981A3
:1052E000811141C080910F038017E8F120E12A95D8
:1052F000F1F75A9A529A82E08A95F1F700C0A8E035
:105300000A9FC00111240091100310911103080F8E
:10531000191F5A98F8016581662321F086819781CB
:105320000E9423290E948F28F0E1FA95F1F75A98FC
:1053300052985A9A20E12A95F1F7D80112966C9169
:105340001297662331F113968D919C910E94C22889
:10535000D801ED91FC91882311F088E001C082E032
:1053600080830E9487280F90DF91CF91FF91EF916A
:10537000BF91AF919F918F917F916F915F914F916D
:105380003F912F911F910F910F900FBE0F901F9083
:105390001895ED91FC91E1CF0F931F93CF93DF937D
:1053A00020910F03281719060CF471C08C0193E0AB
:1053B000000F111F9A95E1F7C0911003D0911103CE
:1053C000C00FD11FF894529A5A9825E02A95F1F708
:1053D0000000982F969595708570980F892F83708F
:1053E00096959695980F092B0E948F2800C067E02C
:1053F000802F0E94022980E18A95F1F752985A9AEB
:105400004A9B17C087E090E04A9915C06D816623DA
:1054100021F18E819F810E94C22881111EC0529A63
:105420005A9AE881F98182E08083789482E090E062
:105430000DC000C0E5CF019771F4529A5A9AE881E5
:10544000F98181E08083789481E090E0DF91CF91D1
:105450001F910F91089500C0D7CF0E94872820E2A6
:105460002A95F1F75A98529A80E18A95F1F76A8164
:10547000662321F08B819C810E9423290E948F2822
:10548000E881F9811082789490E080E0DFCF84E0B9
:1054900090E0DCCFF999FECF92BD81BDF89A9927B3
:1054A00080B50895A6E1B0E044E050E00C94842A71
:1054B000A8E1B0E042E050E00C94842A262FF9994C
:1054C000FECF92BD81BDF89A019700B4021639F063
:1054D0001FBA20BD0FB6F894FA9AF99A0FBE089534
:1054E0000396272F0E945F2A0E945E2A252F0E9482
:1054F0005F2A242F0C945F2A0196272F0E945F2A8F
:105500000C945E2ADC01CB01FC01F999FECF06C0A8
:10551000F2BDE1BDF89A319600B40D924150504071
:10552000B8F7089587FB082E062687FD819567FD4D
:1055300061950E94D52A0EF4919507FC81950895F6
:10554000AA1BBB1B51E107C0AA1FBB1FA617B707A9
:1055500010F0A61BB70B881F991F5A95A9F78095C5
:105560009095BC01CD01089597FB072E16F4009489
:1055700007D077FD09D00E94A02A07FC05D03EF491
:10558000909581959F4F0895709561957F4F0895EF
:10559000EE0FFF1F0590F491E02D099469279627DF
:1055A00069277827872778270895991B79E004C011
:1055B000991F961708F0961B881F7A95C9F7809552
:1055C0000895FC014150504030F001900616D1F78B
:1055D0003197CF010895882799270895F894FFCF30
:1055E0000118191A1B1C1D1E1F2021010201DF05B5
:1055F000C90DAA0DA60DA20D01FB0204FC020600B6
:10560000030603080703000000000102020202066D
:1056100006060909090909090F0F0F0F0F0F1515C4
:105620001518181818181818181818818283E2000D
:10563000E900EA00B500B600B700CD008301CC0058
:105640008A019201940121022302240225022602EA
:1056500027022A02B300B4006F007000946697C658
:105660003435000000000000F4F5F6F7313332362F
:105670004022B684016201AC009B07B407D4070046
:00000001FF
